:020000040800F2
:1000000088070020CD010008D91C00081916000837
:10001000D51C000893050008C52600080000000054
:10002000000000000000000000000000D11E0008D9
:100030006714000800000000611D0008BD1F0008D3
:10004000E7010008E7010008E7010008E7010008F0
:10005000E7010008E7010008E7010008E7010008E0
:10006000E7010008E7010008E7010008E7010008D0
:10007000E1110008E7010008E7010008E7010008B6
:10008000E7010008E701000875030008E701000820
:10009000E7010008E7010008E7010008E7010008A0
:1000A000E7010008E7010008E7010008E701000890
:1000B00021200008E7010008E7010008E701000827
:1000C000E7010008E7010008E7010008E701000870
:1000D000E701000899240008E7010008E70100088B
:1000E000E7010008E7010008E7010008E701000850
:1000F000E7010008E7010008E7010008E701000840
:10010000E7010008E7010008E7010008E70100082F
:10011000E7010008E7010008E7010008E70100081F
:10012000E7010008E7010008E7010008E70100080F
:1001300000F002F800F03AF80AA090E8000C8244BF
:100140008344AAF10107DA4501D100F02FF8AFF29C
:10015000090EBAE80F0013F0010F18BFFB1A43F0A5
:10016000010318477433000094330000103A24BF91
:1001700078C878C1FAD8520724BF30C830C144BF0C
:1001800004680C607047000000230024002500264E
:10019000103A28BF78C1FBD8520728BF30C148BFEA
:1001A0000B6070471FB51FBD10B510BD00F0A8F85B
:1001B0001146FFF7F7FF02F087FA00F0C6F803B424
:1001C000FFF7F2FF03BC00F0CDF8000009488047BC
:1001D00009480047FEE7FEE7FEE7FEE7FEE7FEE729
:1001E000FEE7FEE7FEE7FEE704480549054A064B41
:1001F00070470000C11F000831010008880100207D
:10020000880700208803002088030020032A40F28A
:10021000308010F0030C00F0158011F8013BBCF1A8
:10022000020F624498BF11F801CB00F8013B38BFC0
:1002300011F8013BA2F1040298BF00F801CB38BFCE
:1002400000F8013B11F0030300F02880083AC0F0E9
:10025000088051F8043B083A51F804CBA0E8081094
:10026000F5E7121D5CBF51F8043B40F8043BAFF3C7
:100270000080D20724BF11F8013B11F801CB48BF21
:1002800011F8012B24BF00F8013B00F801CB48BF57
:1002900000F8012B704770477047704710B5203A3F
:1002A000C0F00B80B1E81850203AA0E81850B1E82F
:1002B0001850A0E81850BFF4F5AF5FEA027C24BFE5
:1002C000B1E81850A0E8185044BF18C918C0BDE8DC
:1002D00010405FEA827C24BF51F8043B40F8043BA5
:1002E00008BF7047D20728BF31F8023B48BF11F85A
:1002F000012B28BF20F8023B48BF00F8012B7047B4
:10030000754600F02BF8AE4605006946534620F0CE
:100310000700854618B020B5FFF766FFBDE820400E
:100320004FF000064FF000074FF000084FF0000BB1
:1003300021F00701AC46ACE8C009ACE8C009ACE864
:10034000C009ACE8C0098D46704710B50446AFF34C
:1003500000802046BDE81040FFF731BF00487047DD
:100360002401002001491820ABBEFEE72600020050
:100370007047000010B50C4800F062F804464FF4D6
:100380000871094800F014F8B4F5FA7F03DDFF2086
:100390000649087002E00020044908700121024863
:1003A00000F0E7F810BD000000240140BA00002072
:1003B00000220A12D3430360704721B1826842F0E1
:1003C0000102826003E0826822F0010282607047CD
:1003D00010B504461248844208D10121401501F0AD
:1003E000FDFC0021601501F0F9FC17E00D48844286
:1003F00008D10121001501F0F1FC0021201501F0C8
:10040000EDFC0BE00848844208D10121C80301F04B
:10041000E5FC00214FF4004001F0E0FC10BD0000BD
:100420000024014000280140003C0140014600201A
:100430008A6802F004020AB1012000E0002070473F
:100440000146C86C80B2704710B50023CBB21AB118
:1004500044681C43446002E044689C43446010BD0F
:1004600030B502460020002350680F4C20400D7923
:100470000C6844EA05242043506090680B4C2040EF
:10048000D1E902542C434D7944EA4504204390605D
:10049000D06A20F470000C7C641EE4B2234340EA6E
:1004A0000350D06230BD0000FFFEF0FFFDF7F1FF0A
:1004B000F0B504460D4600200021092D11DDE0684D
:1004C000A5F10A0606EB4607072606FA07F1884358
:1004D000A5F10A0606EB460603FA06F10843E060BA
:1004E0000CE0206905EB4507072606FA07F188436B
:1004F00005EB450603FA06F108432061072A0FDAE7
:10050000606B561E06EB86071F2606FA07F1884326
:10051000561E06EB860605FA06F10843606322E0E4
:100520000D2A0FDA206BD61F06EB86071F2606FA68
:1005300007F18843D61F06EB860605FA06F1084345
:10054000206310E0E06AA2F10D0606EB86071F2685
:1005500006FA07F18843A2F10D0606EB860605FAB6
:1005600006F10843E062F0BD816841F00801816056
:10057000704721B1826842F4A002826003E0826881
:1005800022F4A00282607047816841F0040181601A
:10059000704700BFFEE700002DE9F04104460D461C
:1005A0000022074B2046294602F060FC074602F075
:1005B000F3FB86B23146034801F016FFBDE8F08137
:1005C00000003440000400401FB588B00898072898
:1005D0007ED2DFE810F07D000700FF00F501FD028C
:1005E000F303FC040022FE4BDDE90A0102F072FD78
:1005F0000022FC4BCDE9000102F038FC0022FA4B4E
:10060000CDE9020102F070FACDE90601F748006871
:1006100002F04AFECDE90401DDE9062302F0EAFB1F
:100620005DD2F248006802F03FFEF14AF14BCDE99D
:10063000040102F0A5F9CDE9060102F06FF9EB49DA
:1006400008600846006802F05BFE80B20146079031
:10065000E94801F0C5FE0022E14BDDE90A0102F0A4
:1006600039FD0022DF4BCDE9000102F0FFFB002243
:10067000DD4BCDE9020102F037FACDE90601DB4896
:10068000006802F011FECDE90401DDE9062302F065
:10069000EBFC23D80022D24BDDE90A0102F01AFD5F
:1006A0000022D04BCDE9020102F0E0FB0022CE4B4C
:1006B000CDE9040102F018FACDE9060102F02EF9A5
:1006C000CA4908600846006802F01AFE80B200E0DD
:1006D0007DE201460790C84801F082FE79E00022E1
:1006E000BF4BDDE90A0102F0F5FC0022BD4BCDE96C
:1006F000000102F0BBFB0022BB4BCDE9020102F07E
:10070000F3F9CDE90601B948006802F0CDFDCDE965
:100710000401DDE9062302F0A7FC5AD2B3480068C1
:1007200002F0C2FDB24AB34BCDE9040102F0D2FCA3
:10073000CDE9060102F0F2F8AC490860084600680D
:1007400002F0DEFD80B201460790AB4801F048FEA2
:100750000022A34BDDE90A0102F0BCFC0022A14B00
:10076000CDE9000102F082FB00229F4BCDE902019E
:1007700002F0BAF9CDE906019C48006802F094FD48
:10078000CDE90401DDE9062302F034FB21D8002283
:10079000934BDDE90A0102F09DFC0022914BCDE96B
:1007A000020102F063FB00228F4BCDE9040102F04D
:1007B0009BF9CDE9060102F0B1F88C4908600846C2
:1007C000006802F09DFD80B2014607908A4801F062
:1007D00007FEFCE10022824BDDE90A0102F07AFC0F
:1007E0000022804BCDE9000102F040FB00227E4B4D
:1007F000CDE9020102F078F9CDE906017F480068F1
:1008000002F052FDCDE90401DDE9062302F0F2FA1F
:100810005BD27A48006802F047FD754A754BCDE916
:10082000040102F0ADF8CDE9060102F077F8734952
:1008300008600846006802F063FD80B20146079038
:100840006D4801F0CFFD0022654BDDE90A0102F0A1
:1008500041FC0022634BCDE9000102F007FB0022BE
:10086000614BCDE9020102F03FF9CDE90601634891
:10087000006802F019FDCDE90401DDE9062302F06C
:10088000F3FB21D80022564BDDE90A0102F022FCDD
:100890000022544BCDE9020102F0E8FA0022524B4B
:1008A000CDE9040102F020F9CDE9060102F036F8A5
:1008B000524908600846006802F022FD80B20146F5
:1008C00007904D4801F08EFD79E00022444BDDE9B0
:1008D0000A0102F0FFFB0022424BCDE9000102F0C9
:1008E000C5FA0022404BCDE9020102F0FDF8CDE946
:1008F00006014248006802F0D7FCCDE90401DDE9B9
:10090000062302F0B1FB5AD23C48006802F0CCFC4E
:10091000374A384BCDE9040102F0DCFBCDE9060192
:1009200001F0FCFF354908600846006802F0E8FC69
:1009300080B201460790304801F054FD0022284B58
:10094000DDE90A0102F0C6FB0022264BCDE90001D9
:1009500002F08CFA0022244BCDE9020102F0C4F827
:10096000CDE906012548006802F09EFCCDE90401AE
:10097000DDE9062302F03EFA21D80022184BDDE91A
:100980000A0102F0A7FB0022164BCDE9020102F09A
:100990006DFA0022144BCDE9040102F0A5F8CDE96F
:1009A000060101F0BBFF154908600846006802F027
:1009B000A7FC80B2014607900F4801F013FDFCE34D
:1009C0000022074BDDE90A0102F084FB0022054BFF
:1009D000CDE9000102F04AFA0022034B10E00000CA
:1009E000008046C000408F4000805640000000203C
:1009F0008EE3388EE33816400008004004000020E3
:100A0000CDE9020102F070F8CDE90601FE48006868
:100A100002F04AFCCDE90401DDE9062302F0EAF91F
:100A20005BD2F948006802F03FFCF84AF84BCDE988
:100A3000040101F0A5FFCDE9060101F06FFFF249C5
:100A400008600846006802F05BFC80B2014607902F
:100A5000F04801F0C9FC0022EF4BDDE90A0102F089
:100A600039FB0022ED4BCDE9000102F0FFF9002235
:100A7000EB4BCDE9020102F037F8CDE90601E2487F
:100A8000006802F011FCCDE90401DDE9062302F063
:100A9000EBFA21D80022E04BDDE90A0102F01AFB53
:100AA0000022DE4BCDE9020102F0E0F90022DC4B2E
:100AB000CDE9040102F018F8CDE9060101F02EFF9E
:100AC000D14908600846006802F01AFC80B201466D
:100AD0000790D04801F088FC79E00022CE4BDDE998
:100AE0000A0102F0F7FA0022CC4BCDE9000102F036
:100AF000BDF90022CA4BCDE9020101F0F5FFCDE9B5
:100B00000601C148006802F0CFFBCDE90401DDE930
:100B1000062302F0A9FA5AD2BB48006802F0C4FBCF
:100B2000BA4ABB4BCDE9040102F0D4FACDE9060183
:100B300001F0F4FEB44908600846006802F0E0FBEA
:100B400080B201460790B34801F04EFC0022B24B40
:100B5000DDE90A0102F0BEFA0022B04BCDE9000146
:100B600002F084F90022AE4BCDE9020101F0BCFF96
:100B7000CDE90601A448006802F096FBCDE9040126
:100B8000DDE9062302F036F921D80022A24BDDE987
:100B90000A0102F09FFA0022A04BCDE9020102F007
:100BA00065F900229E4BCDE9040101F09DFFCDE9DE
:100BB000060101F0B3FE944908600846006802F09F
:100BC0009FFB80B201460790924801F00DFCF4E2D1
:100BD0000022914BDDE90A0102F07CFA00228F4BE2
:100BE000CDE9000102F042F900228D4BCDE902016E
:100BF00001F07AFFCDE906018A48006802F054FB53
:100C0000CDE90401DDE9062302F0F4F85BD2854862
:100C1000006802F049FB7D4A7D4BCDE9040101F0FB
:100C2000AFFECDE9060101F079FE7E490860084675
:100C3000006802F065FB80B201460790754801F03C
:100C4000D5FB0022744BDDE90A0102F043FA0022D1
:100C5000724BCDE9000102F009F90022704BCDE999
:100C6000020101F041FFCDE906016E48006802F083
:100C70001BFBCDE90401DDE9062302F0F5F921D8DB
:100C80000022654BDDE90A0102F024FA0022634BE1
:100C9000CDE9020102F0EAF80022614BCDE904013E
:100CA00001F022FFCDE9060101F038FE5D49086040
:100CB0000846006802F024FB80B2014607905548C0
:100CC00001F094FB79E00022534BDDE90A0102F0C8
:100CD00001FA0022514BCDE9000102F0C7F80022D1
:100CE0004F4BCDE9020101F0FFFECDE906014D4871
:100CF000006802F0D9FACDE90401DDE9062302F02B
:100D0000B3F95AD24748006802F0CEFA3F4A404B46
:100D1000CDE9040102F0DEF9CDE9060101F0FEFDA6
:100D2000404908600846006802F0EAFA80B20146CD
:100D30000790384801F05AFB0022374BDDE90A01E1
:100D400002F0C8F90022354BCDE9000102F08EF81F
:100D50000022334BCDE9020101F0C6FECDE90601C8
:100D60003048006802F0A0FACDE90401DDE906236D
:100D700002F040F821D80022274BDDE90A0102F0F9
:100D8000A9F90022254BCDE9020102F06FF80022FB
:100D9000234BCDE9040101F0A7FECDE9060101F0E6
:100DA000BDFD204908600846006802F0A9FA80B23B
:100DB00001460790174801F019FBFEE10022164B8F
:100DC000DDE90A0102F086F90022144BCDE90001A9
:100DD00002F04CF80022124BCDE9020101F084FE32
:100DE000CDE906011048006802F05EFACDE9040181
:100DF000DDE9062301F0FEFF6ED20B48006802F029
:100E000053FA024A024B11E0080000208EE3388EAC
:100E1000E338164000080040008046C000408F4084
:100E2000008056400C00002010000020CDE9040195
:100E300001F0A6FDCDE9060101F070FDE049086072
:100E40000846006802F05CFA80B201460790DD486F
:100E500001F0C6FA0022DC4BDDE90A0102F03AF9A2
:100E60000022DA4BCDE9000102F000F80022D84B55
:100E7000CDE9020101F038FECDE90601D048006855
:100E800002F012FACDE90401DDE9062302F0ECF8E4
:100E900021D80022CC4BDDE90A0102F01BF9002227
:100EA000CA4BCDE9020101F0E1FF0022C84BCDE9B8
:100EB000040101F019FECDE9060101F02FFDC04942
:100EC00008600846006802F01BFA80B201460790ED
:100ED000BC4801F085FA79E00022BB4BDDE90A014C
:100EE00002F0F8F80022B94BCDE9000101F0BEFF95
:100EF0000022B74BCDE9020101F0F6FDCDE9060174
:100F0000AF48006802F0D0F9CDE90401DDE906231D
:100F100002F0AAF85AD2AA48006802F0C5F9AD4A10
:100F2000AD4BCDE9040102F0D5F8CDE9060101F0A1
:100F3000F5FCA34908600846006802F0E1F980B2B8
:100F4000014607909F4801F04BFA00229E4BDDE9D5
:100F50000A0102F0BFF800229C4BCDE9000101F02C
:100F600085FF00229A4BCDE9020101F0BDFDCDE9DC
:100F700006019348006802F097F9CDE90401DDE924
:100F8000062301F037FF21D800228F4BDDE90A014B
:100F900002F0A0F800228D4BCDE9020101F066FFBE
:100FA00000228B4BCDE9040101F09EFDCDE9060145
:100FB00001F0B4FC824908600846006802F0A0F91C
:100FC00080B2014607907F4801F00AFAF5E000225E
:100FD0007D4BDDE90A0102F07DF800227B4BCDE973
:100FE000000101F043FF0022794BCDE9020101F03D
:100FF0007BFDCDE906017948006802F055F9CDE99D
:101000000401DDE9062301F0F5FE5BD273480068B8
:1010100002F04AF96F4A704BCDE9040101F0B0FCCF
:10102000CDE9060101F07AFC6C49086008460068C9
:1010300002F066F980B201460790624801F0D2F9E9
:101040000022614BDDE90A0102F044F800225F4B07
:10105000CDE9000101F00AFF00225D4BCDE902015C
:1010600001F042FDCDE906015C48006802F01CF980
:10107000CDE90401DDE9062301F0F6FF21D80022C5
:10108000514BDDE90A0102F025F800224F4BCDE972
:10109000020101F0EBFE00224D4BCDE9040101F00D
:1010A00023FDCDE9060101F039FC4C4908604448B4
:1010B000006802F025F980B201460790414801F02E
:1010C00091F979E00022404BDDE90A0102F002F8D3
:1010D00000223E4BCDE9000101F0C8FE00223C4B4E
:1010E000CDE9020101F000FDCDE906013B480068B1
:1010F00002F0DAF8CDE90401DDE9062301F0B4FFDE
:101100005AD23648006802F0CFF8324A324BCDE965
:10111000040101F0DFFFCDE9060101F0FFFB2F49DB
:1011200008600846006802F0EBF880B201460790BC
:10113000244801F057F90022234BDDE90A0101F0B0
:10114000C9FF0022214BCDE9000101F08FFE0022F2
:101150001F4BCDE9020101F0C7FCCDE906011F4894
:10116000006802F0A1F8CDE90401DDE9062301F0F1
:1011700041FE21D80022144BDDE90A0101F0AAFF4B
:101180000022124BCDE9020101F070FE0022104B4B
:10119000CDE9040101F0A8FCCDE9060101F0BEFB98
:1011A0000E4908600648006802F0AAF880B20146BD
:1011B0000790044801F016F900BF00BF0CB010BD45
:1011C0001000002000040040008046C000408F4016
:1011D000008056408EE3388EE3381640140000201D
:1011E00010B5202000F000F990B1012009490860F5
:1011F000202000F023F840F22661074801F082F930
:101200000021064800F028F82B21044800F029F9B5
:1012100010BD00001C000020004800401C000240DF
:1012200000F0805111B10349086001E002494860B3
:1012300070470000040402400000024000F08051AA
:1012400011B10349086001E002494860704700009D
:10125000040402400000024021B1026842F0010291
:10126000026004E002684FF6FE731A4002607047A5
:1012700001684FF6FE72114001600021016041607B
:101280008160C1604B49884208D14A4908394968A0
:1012900041F00F01474A083A51608AE0454914314C
:1012A000884208D143490839496841F0F001414A70
:1012B000083A51607DE03F492831884208D13D49D4
:1012C0000839496841F470613A4A083A516070E05F
:1012D00038493C31884208D136490839496841F4D7
:1012E0007041344A083A516063E0324950318842D3
:1012F00008D130490839496841F470212D4A083A2B
:10130000516056E02B496431884208D12949083997
:10131000496841F47001274A083A516049E025497B
:101320007831884208D123490839496841F0706111
:10133000204A083A51603CE01F49884206D1011F0B
:10134000096841F00F01021F116032E01A4914319F
:10135000884208D11849091F096841F0F001164A6E
:10136000121F116025E014492831884208D1124922
:10137000091F096841F470610F4A121F116018E0DB
:101380000D493C31884208D10B49091F096841F4D5
:101390007041094A121F11600BE007495031884221
:1013A00007D10549091F096841F47021024A121F3B
:1013B0001160704708000240080402400146002006
:1013C000002201F0805313B1054B1A6801E0054B70
:1013D0001A6802EA01030BB1012000E00020704707
:1013E000000402400000024001460020002201F0FB
:1013F000805313B1054B1A6801E0054B1A6802EAE5
:1014000001030BB1012000E00020704700040240FE
:10141000000002401AB103680B43036002E0036856
:101420008B430360704710B50022026847F6F073E3
:101430009A430C6A8B6823430C6923434C6923430A
:101440008C692343CC6923434C6A23438C6A23432E
:101450001A430260CB6843600B6883604B68C360CB
:1014600010BD4160704770472DE9F04102460025EC
:101470000026002000230024002791F803C00CF070
:101480000F0591F803C00CF0100CBCF1000F03D055
:1014900091F802C04CEA050591F800C0BCF1000FBC
:1014A00031D0146800202BE04FF0010C0CFA00F34F
:1014B000B1F800C00CEA03069E4220D183004FF031
:1014C0000F0C0CFA03F7BC4305FA03FC4CEA0404C6
:1014D00091F803C0BCF1280F06D14FF0010C0CFAB3
:1014E00000FCC2F814C00AE091F803C0BCF1480F38
:1014F00005D14FF0010C0CFA00FCC2F810C0401CE2
:101500000828D1D31460B1F800C0BCF1FF0F34DD5E
:10151000546800202EE000F1080C4FF0010808FA92
:101520000CF3B1F800C00CEA03069E4221D18300FF
:101530004FF00F0C0CFA03F7BC4305FA03FC4CEA1E
:10154000040491F803C0BCF1280F05D100F1080C88
:1015500008FA0CF8C2F8148091F803C0BCF1480FE7
:1015600007D100F1080C4FF0010808FA0CF8C2F896
:101570001080401C0828CED35460BDE8F0810000E4
:10158000F0B50A46002300240021002500F00046A3
:10159000B6F1004F02D11D4EF16901E01B4E71689A
:1015A000C0F3034583B200F44016B6F5401F08D1DE
:1015B00021F07061154E766826F07066134F7E60DC
:1015C00012E000F48016B6F5801F06D1032606FA55
:1015D00005F4A14341F0706106E0460D360103FABF
:1015E00006F6B14341F0706122B1460D360103FAAF
:1015F00006F6314300F00046B6F1004F02D1034E2B
:10160000F16101E0014E7160F0BD00000000014099
:10161000416170470161704700BFFEE700B587B0C8
:1016200001214FF4017000F0C9FB00208DF81B0070
:101630000220ADF8180003208DF81A0006A92C48E6
:10164000FFF712FF4FF4004000F08CFB2948FEF733
:10165000BFFE01208DF80900002004904FF46020A7
:1016600003900020019001208DF8140000208DF8D7
:10167000080001A91F48FEF7F3FE12208DF80000B4
:1016800001208DF8030000208DF801008DF8020084
:10169000684600F023FB4FF4A06000F057FB0122E6
:1016A0004FF408711348FEF7CFFE01211148FEF7F1
:1016B00084FE1048FEF758FF00BF0E48FEF7B6FE46
:1016C0000028FAD10B48FEF75FFF00BF0948FEF77C
:1016D000ADFE0028FAD10723012211460548FEF786
:1016E000E7FE01210348FEF744FF07B000BD0000FC
:1016F000000801400024014008B50121080200F063
:101700005DFB4FF48040ADF8000003208DF802002F
:1017100010208DF8030069460148FFF7A5FE08BDBB
:10172000002001402DE9F04F89B007460C461546D0
:101730001E46DDE9139ADDF848800121312000F0D2
:101740003DFB0121062000F029FB18208DF8230025
:101750004FF47040ADF8200003208DF8220008A956
:101760006D48FFF781FE18208DF823004FF4E070DC
:10177000ADF8200003208DF8220008A96748FFF784
:1017800073FE10208DF823004FF4C060ADF82000E8
:1017900003208DF8220008A96048FFF765FE0121AB
:1017A0000803FFF7EDFE01215D48FFF7E9FE44F66F
:1017B0001F60ADF818004720ADF814000020ADF808
:1017C0001A00ADF8160005A9564800F013FE44F6BD
:1017D0001F60ADF818004720ADF814000020ADF8E8
:1017E0001A00ADF8160005A94F4800F003FE0121CC
:1017F0004C4800F0A3FC01214B4800F09FFC602006
:10180000ADF80400384601F07BFD80B2ADF80A0067
:101810000020ADF80C000120ADF8060001A94148F8
:1018200000F0B2FC6020ADF80400204601F068FD35
:1018300080B2ADF80A000020ADF80C000120ADF830
:10184000060001A9374800F0EBFC6020ADF8040069
:10185000284601F055FD80B2ADF80A000020ADF831
:101860000C000120ADF8060001A92E4800F02AFD69
:101870006020ADF80400304601F042FD80B2ADF8C2
:101880000A000020ADF80C000120ADF8060001A907
:10189000244800F067FD6020ADF80400404601F0E8
:1018A0002FFD80B2ADF80A000020ADF80C00012039
:1018B000ADF8060001A91C4800F066FC6020ADF8F8
:1018C0000400484601F01CFD80B2ADF80A0000207B
:1018D000ADF80C000120ADF8060001A9124800F097
:1018E0009FFC6020ADF804001049504601F028FD2F
:1018F000834601F005FD80B2ADF80A000020ADF886
:101900000C000120ADF8060001A9074800F0DAFC40
:1019100009B0BDE8F08F0000001401400010014044
:10192000000C1A0000080040000400400000A04124
:101930001FB50121084600F031FA40F2E730ADF85A
:10194000080041F61F40ADF804000020ADF80A0081
:10195000ADF8060001A94FF0804000F04BFD0121D9
:10196000880700F0E5FB01221146900700F003FC18
:101970001C208DF8000001208DF8030002208DF856
:1019800001008DF80200684600F0A8F94FF4A0604D
:1019900000F0DCF90121880700F0D0FB1FBD00003A
:1019A00000B591B0012144F2050000F007FA0121D1
:1019B000084600F0E3F94FF40070ADF8400018203D
:1019C0008DF8430001208DF8420010A93348FFF73D
:1019D0004BFD4FF48060ADF8400004208DF84300CB
:1019E00001208DF8420010A92C48FFF73DFD4FF46F
:1019F000E1300C900020ADF83400ADF83600ADF8C1
:101A000038000C20ADF83A000020ADF83C000CA9DD
:101A1000234800F0EBFD2348FFF72AFC2048001D77
:101A2000009021480190002002902920039000207E
:101A300004908020059000200690079008904FF4B5
:101A40008050099000200A9069461648FFF7EBFC89
:101A500001211448FFF700FC25208DF82C000120FF
:101A60008DF82F008DF82D008DF82E000BA800F0BA
:101A700035F94FF4A06000F069F9012240F22441E9
:101A8000074800F08DFD01224021054800F055FD7A
:101A90000121034800F045FD11B000BD00080140E0
:101AA0000038014058000240D000002000B585B049
:101AB0000121052000F082F90121480400F06EF9AF
:101AC0000121084600F05AF90420ADF81000182052
:101AD0008DF8130001208DF8120004A91448FFF7B7
:101AE000C3FC0820ADF8100004208DF8130001207D
:101AF0008DF8120004A90E48FFF7B6FC4FF4E13050
:101B000000900020ADF80400ADF80600ADF8080024
:101B10000C20ADF80A000020ADF80C00694605481D
:101B200000F064FD0121034800F0FBFC05B000BD9E
:101B3000000801400044004000B591B0012121207F
:101B400000F03CF90121880400F028F90121084641
:101B500000F014F94FF48070ADF8400018208DF8B3
:101B6000430001208DF8420010A93548FFF77CFCA6
:101B700001213448FFF704FD4FF4E1300C900020C0
:101B8000ADF83400ADF83600ADF838000C20ADF8F3
:101B90003A000020ADF83C000CA92B4800F026FDCF
:101BA0002A48FFF765FB2848001D0090284801904F
:101BB000102002902B20039000200490802005909C
:101BC00000200690079008904FF4405009900020A4
:101BD0000A9069461D48FFF726FC012202211B4896
:101BE000FFF718FC0C208DF82C0001208DF82F0039
:101BF0008DF82D0002208DF82E000BA800F06EF855
:101C000027208DF82C0001208DF82F008DF82D0055
:101C100004208DF82E000BA800F060F84FF4A060AF
:101C200000F094F801228021074800F086FC202073
:101C3000FFF704FB0121044800F073FC11B000BD64
:101C40000014014030001400004800401C00024015
:101C5000F90000202DE9F0438BB007460D461646EB
:101C60001C46DDE912890121084600F087F80F487B
:101C700004803846FFF7FCFA0394CDF80880002072
:101C80000A900196079080200590CDF8209000954D
:101C90000020069004904FF4805009906946384621
:101CA000FFF7C1FB0BB0BDE8F0830000B8000020D7
:101CB00010B5044600212046FFF7CEFA04480188FB
:101CC0002046FFF7CEFB01212046FFF7C5FA10BDE5
:101CD000B800002000BFFEE77047000070B500218B
:101CE00000230F22C47804B3154C246804F4E06484
:101CF000C4F5E064210AC1F10403CA40447804FA3F
:101D000003F184781440214309010E4C0678A15553
:101D1000047804F01F050124AC4005786D11AD0076
:101D200005F1E025C5F8004109E0047804F01F053D
:101D30000124AC40044D0678761145F8264070BD6C
:101D40000CED00E000E400E080E100E00249014326
:101D5000024A1160704700000000FA050CED00E037
:101D60007047000001460020034A506820F44040BC
:101D700008435060704700000010024029B1064A35
:101D800052690243044B5A6104E0034A5269824398
:101D9000014B5A61704700000010024029B1064A09
:101DA000D2690243044BDA6104E0034AD2698243F8
:101DB000014BDA61704700000010024029B1064A69
:101DC00092690243044B9A6104E0034A9269824398
:101DD000014B9A61704700000010024029B1064A89
:101DE000D2680243044BDA6004E0034AD2688243BB
:101DF000014BDA60704700000010024030B500214E
:101E00000022002400232D4D6D6805F00C0121B146
:101E1000042905D0082923D105E0294D056022E0D9
:101E2000274D05601FE0254D6D6805F47012234DA8
:101E30006D6805F48034022505EB92421CB9214DF2
:101E4000554305600BE01D4D6D6805F400351DB16F
:101E50001C4D5543056002E0194D5543056002E0F5
:101E6000174D056000BF00BF144D6D6805F0F0010F
:101E70000909154D6B5C0568DD4045600F4D6D68C7
:101E800005F4E061090A104D6B5C4568DD40856032
:101E90000A4D6D6805F46051C90A0B4D6B5C4568CD
:101EA000DD40C560054D6D6805F44041890B074D67
:101EB0006B5CC568B5FBF3F5056130BD00100240F1
:101EC00000127A0000093D00BB000020CB0000207A
:101ED000704710B500F002F810BD00000CB50020EE
:101EE000019000903348006840F480303149086028
:101EF00000BF3048006800F4003000900198401C9A
:101F00000190009818B90198B0F5A06FF1D1294857
:101F1000006800F4003010B10120009001E00020C2
:101F200000900098012843D12348006840F0100039
:101F3000214908600846006820F003000860084650
:101F4000006840F0020008601A484068194948607B
:101F50000846406848600846406840F48060486031
:101F60000846406820F47C1048600846406840F409
:101F7000E81048600846006840F08070086000BFC4
:101F80000C48006800F000700028F9D0094840684B
:101F900020F00300074948600846406840F002000E
:101FA000486000BF0348406800F00C000828F9D1E1
:101FB0000CBD0000001002400020024070470000ED
:101FC00010B51348006840F0010011490860084648
:101FD0004068104908400E494860084600680E49AC
:101FE00008400B4908600846006820F4802008601B
:101FF0000846406820F4FE0048604FF41F008860E7
:10200000FFF767FF4FF000600449086010BD000053
:10201000001002400000FFF8FFFFF6FE08ED00E0B0
:1020200070B50121880700F095F800286DD00121D6
:10203000880700F080F835480078002843D13448FC
:10204000006801F031F9044622460B460120FEF7F4
:10205000BBFA3048006801F027F9044622460B46D7
:102060000220FEF7B1FA2C48006801F01DF9044681
:1020700022460B460320FEF7A7FA2848006801F025
:1020800013F9044622460B460420FEF79DFA244825
:10209000006801F009F9044622460B460520FEF7C8
:1020A00093FA2048006801F0FFF8044622460B46E8
:1020B0000620FEF789FA1C48006801F0F5F804468E
:1020C000FEF76AFA21E00022184B0120FEF77CFAA5
:1020D0000022164B0220FEF777FA0022134B032052
:1020E000FEF772FA0022114B0420FEF76DFA00226F
:1020F0000E4B0520FEF768FA00220C4B0620FEF777
:1021000063FA00200146FEF747FA70BDBA000020CE
:102110008000002084000020880000208C00002027
:10212000900000209400002098000020008056407D
:10213000CA4302827047CA430282704721B10288B3
:1021400042F00102028004E002884FF6FE731A405A
:102150000280704730B50246002000230024158A13
:1021600005EA0103958905EA010413B10CB10120C8
:1021700000E0002030BD1AB183890B43838102E067
:1021800083898B438381704770B50024002200232C
:10219000058C4FF6FE7635400584028C8388048BCF
:1021A0004FF68F752C40B51E2C400D882C43751EA4
:1021B0002A400D892A434D882A43144DA8420BD04A
:1021C000134DA84208D0134DA84205D0124DA84285
:1021D00002D0124DA84213D14FF6F7752A404D890F
:1021E0002A434FF6FB752A408D882A434FF6FF6538
:1021F0002B404FF6FF552B408D892B43CD892B4328
:1022000083800483CD888586028470BD002C0140C4
:1022100000340140004001400044014000480140BA
:1022200070B5002400220023058C4FF6EF76354070
:102230000584028C8388048B48F6FF752C404FF68A
:10224000FF452C400D884FF6FF7606EA05252C4306
:102250004FF6DF752A400D8906EA05152A434D8899
:1022600006EA05152A43154DA84202D0144DA8428E
:102270001DD14FF67F752A404D894FF6FF7606EA4D
:1022800005152A434FF6BF752A408D8806EA0515C5
:102290002A434FF6FF352B404FF2FF752B408D89B7
:1022A00006EA85052B43CD8906EA85052B43838005
:1022B0000483CD880587028470BD0000002C014096
:1022C0000034014070B5002400220023058C4FF635
:1022D000FF6635400584028C8388848B4FF68F75AA
:1022E0002C404FF6FC752C400D882C434FF6FF55C3
:1022F0002A400D894FF6FF7606EA05252A434D88C8
:1023000006EA05252A43154DA84202D0144DA842DD
:102310001DD14FF2FF752A404D894FF6FF7606EA30
:1023200005252A434FF6FF352A408D8806EA052504
:102330002A434EF6FF752B404DF6FF752B408D89D5
:1023400006EA05152B43CD8906EA05152B43838044
:102350008483CD888587028470BD0000002C0140F5
:102360000034014070B5002200230024058C4EF695
:10237000FF7635400584038C8488828B48F6FF7590
:102380002A404FF6FF452A400D884FF6FF7606EAB1
:1023900005252A434DF6FF752B400D8906EA0535C4
:1023A0002B434D8806EA05352B430B4DA84202D03E
:1023B0000A4DA84208D14BF6FF752C408D894FF687
:1023C000FF7606EA85152C4384808283CD88A0F8A9
:1023D0004050038470BD0000002C014000340140D7
:1023E000818670470187704781877047A0F8401049
:1023F00070470000002202881D4B98420ED01D4BF2
:1024000098420BD0B0F1804F08D01B4B984205D0BA
:102410001A4B984202D01A4B984204D14FF68F7350
:102420001A404B881A43174B984207D0164B9842D4
:1024300004D04FF6FF431A40CB881A4302808B88A2
:1024400083850B8803850A4B98420BD0094B984231
:1024500008D00E4B984205D00D4B984202D00D4B40
:10246000984201D10B7A03860123838270470000D2
:10247000002C0140003401400004004000080040EE
:10248000000C0040001000400014004000400140DB
:10249000004401400048014070B50024002540F28E
:1024A0002441144800F052F810B312480488001D6B
:1024B000048800211048FEF7CFFE29220F4910485A
:1024C000FDF7A4FE0E480078FF2809D10C4890F8CB
:1024D0002800332804D1012107483C38FEF7BCFE10
:1024E00029210548FEF7BDFF01210348FEF7B4FE90
:1024F00070BD00000038014058000240D0000020AC
:10250000F900002010B50022002340F66A14A14211
:1025100000D100BF0A1201249440A3B2DC4304801E
:1025200010BD21B1828942F40052828104E0828987
:102530004DF6FF731A40828170471AB1838A0B43AC
:10254000838202E0838A8B438382704770B50246A0
:10255000002400230025002040F66A16B14200D175
:1025600000BFC1F3421501F01F03012606FA03F371
:10257000012D02D19689334006E0022D02D1168A40
:10258000334001E0968A33400C12012606FA04F427
:102590001688344013B10CB1012000E0002070BD5A
:1025A000F0B50346002400260025002040F66A17F7
:1025B000B94200D100BF1846C1F3421401F01F0612
:1025C000012707FA06F5012C01D10C3004E0022C9A
:1025D00001D1103000E014301AB107682F430760B2
:1025E00002E00768AF430760F0BD00002DE9F04747
:1025F00086B005460E460024A24600BFA14600272D
:10260000B08900B100BF2F462C8A4CF6FF70044001
:10261000F08804432C82AC894EF6F3100440B08855
:1026200031890843718908430443AC81AC8A4FF671
:10263000FF400440B0890443AC8201A8FFF7DEFBF1
:102640001F48874202D1DDF810A001E0DDF80CA0A0
:10265000A88900F4004040B10AEBCA0000EB0A1060
:1026600031684900B0FBF1F807E00AEBCA0000EB63
:102670000A1031688900B0FBF1F86420B8FBF0F073
:1026800004012009642101FB1089A88900F400409D
:1026900040B1322000EBC900B0FBF1F000F00700C0
:1026A000044308E0322000EB09106421B0FBF1F094
:1026B00000F00F0004432C8106B0BDE8F087000055
:1026C0000038014000BFFEE70EB5FFF779FCFFF7C9
:1026D00013F87448016874480068744A1268CDE9B8
:1026E00000200291724803687248026872480168CB
:1026F00072480068FFF716F8FFF752F9FFF7D6F9AE
:10270000FFF71AFAFFF714F9FEF788FF20200021DF
:1027100003466B4ACDE900106A496B48FFF79AFA05
:10272000012240216748001FFFF707FF6648FFF7B7
:10273000BFFA4FF480416548FEF76CFF4FF400711B
:102740006348FEF767FF4FF480616148FEF760FF62
:10275000A6E04FF40010FEF731FE0028F8D0002468
:1027600000254FF40010FEF75BFD00BF04E0544865
:10277000005D58490855641C202CF8DB554800784A
:102780005A2811D15348407801280DD15148C07FB3
:10279000332809D1002404E04E48005D4E49085515
:1027A000641C202CF8DB08E0002404E04A48005DAB
:1027B00048490855641C202CF8DB0024022505E05C
:1027C0004448405D45490855641C6D1C042CF7DBEA
:1027D00042480068424908600024062505E03D485B
:1027E000405D40490855641C6D1C042CF7DB3D48D6
:1027F00000683D49086000240A2505E03548405D31
:102800003A490855641C6D1C042CF7DB37480068F6
:102810003749086000240E2505E02E48405D354903
:102820000855641C6D1C042CF7DB324800683249E3
:1028300008600024122505E02648405D2F49085510
:10284000641C6D1C042CF7DB2C4800682C490860C4
:102850000024162505E01F48405D2A490855641CE0
:102860006D1C042CF7DB274800682749086000240A
:102870001A2505E01748405D24490855641C6D1C65
:10288000042CF7DB214800682149086021480078C2
:10289000214981F829000F48807F81F82A0000BF74
:1028A00057E700001800002014000020100000204E
:1028B0000C00002008000020040000200000002080
:1028C00020000020044400406C0002400020014031
:1028D0000010014040000020600000209C0000200B
:1028E00080000020A000002084000020A400002020
:1028F00088000020A80000208C000020AC000020F0
:1029000090000020B000002094000020B4000020BF
:1029100098000020BA000020F900002021F00042B9
:10292000A2F16052B2F5801F01F0004328BFD2F13E
:102930007F6C0BD95FEA001C43EAC20242EB507085
:1029400018BF704728BF20F001007047B2F5801F04
:10295000BCBF184670474FEA410C1CF5001F02D25D
:10296000084600F0B4BD70B500F02AFB00000089F5
:10297000FFF7F6BF4FF00040A0F580007047000061
:1029800010B591EA030F48BF83F0004300F1AA831A
:10299000841A71EB030C05D2121943EB0C03001BD4
:1029A00061EB0C01DFF824E14FEA1154A4EB135C56
:1029B0001EEA430F18BF9EEA445F73D023EA0E035A
:1029C000DCF1200E21EA045143F4801332D322FAC1
:1029D0000CFE10EB0E0023FA0CFE41EB0E01CCF1C5
:1029E000200E03FA0EFE10EB0E0051F10001B1F5BE
:1029F000801FCCF1200E32D201EB045112FA0EF2FC
:102A0000BDE8104058BF7047401C38BF5FEA420223
:102A100018BF7047002814BF20F0010041F10001E9
:102A20004FEA410313F5001F38BF7047A1F1C041C1
:102A300000F014BB012A43EB0302ACF1200CDCF1E3
:102A40001F0E32BF4FF0000E23FA0CF310EB030001
:102A500041EB0451B4EB115FD0D0A1EB045101F56F
:102A6000801149085FEA300001EB04510ED350F1A8
:102A7000000038BF12FA0EFE08D1BDE81040C9E7C9
:102A8000401C38BF5FEA4202CAD1C3E7BDE810402C
:102A90004FEA410313F5001F38BF7047A1F1C04151
:102AA00000F0DCBA9EEA445F08D011EA5E0FBDE890
:102AB000104004BF01F0004100207047BDE8104005
:102AC00070B500F07DFA00BF64FBBE3E0000E0FF81
:102AD000491058BFC1F140415B1058BFC3F140439A
:102AE0008B42EFF3008070472DE9C04130B4DFF82E
:102AF000A0C23CEA111418BF3CEA131400F0EC80A9
:102B000081EA03051CEA111444EAD57418BF1CEAD3
:102B1000131500F0C780A4EB05044FF0004545EA0B
:102B2000C12145EAC32341EA505143EA525304F11B
:102B30007F74994204F500344FEAC0204FEAC22264
:102B400008BF904200F09C804FEA13650FF24016D8
:102B5000765D4FEA134506FB05F7C7F1807706FB64
:102B600007F74FEAD737A7FB03687642C8F58038E6
:102B7000A7FB06CE38BFA8F1010807FB08E64FF017
:102B8000000EA6FB028CE6FB03CEDCF1000CCEF1BE
:102B9000004E38BFAEF1010EA6FB0C584FF00007F7
:102BA0004FF00005E6FB0E87A1FB08C6A0FB07CE91
:102BB00016EB0E0645F10005E1FB076515F1E04E49
:102BC0007EBFA4F580345FEA46066D4116F18007AA
:102BD00045F100054FEA17274FEA066647EA056701
:102BE000A6F1DE46B6F1805F4FEA15251FD93846BB
:102BF00024F0010C05EBC471BCF1FE6F01EB0C116C
:102C000002D8F0BCBDE8008124425CBF01F5801E03
:102C10009EEAC47F02D4F0BCBDE80081244238D4CF
:102C2000F0BCA1F1C041BDE8004100F017BA4FEA85
:102C3000D22242EA43524FEAD323A7FB02864FEA4D
:102C4000D02040EA415007FB03661EEA0E0F4FEA10
:102C5000D12105FB026658BFA6EB0056B6EB005625
:102C60004FEA520E4EEAC37E18EB0E0E56EB530E91
:102C7000BDD518EB02085E417F1C55F10005B6E793
:102C80004FF480154FF000074FF000064FF000089A
:102C9000ADE7F0BC4FF0000001F1C04101F0004190
:102CA000BDE8008111EA0C1F0CEA131500D00CE0FE
:102CB00013EA0C1F00F025804FF00000F0BC81EA01
:102CC000030101F00041BDE80081F0BCBDE8004116
:102CD00081EA030100F0C2B9F0BCBDE8004170B563
:102CE00000F06EF9097EFC3E00F007B881EA0301AE
:102CF0004FF0000001F00041704781EA030100F04D
:102D0000ADB9F0BCBDE800414FF00000214970476B
:102D1000FFFDFBF9F7F5F4F2F0EEEDEBE9E8E6E4A0
:102D2000E3E1E0DEDDDBDAD8D7D5D4D3D1D0CFCD27
:102D3000CCCBCAC8C7C6C5C4C2C1C0BFBEBDBCBB60
:102D4000BAB9B8B7B6B5B4B3B2B1B0AFAEADACAB5B
:102D5000AAA9A8A8A7A6A5A4A3A3A2A1A09F9F9E35
:102D60009D9C9C9B9A9999989797969595949393E7
:102D7000929191908F8F8E8E8D8C8C8B8B8A89897E
:102D80008888878786858584848383828281818001
:102D90000000FF070000F87F4FEA1153A3F580639E
:102DA000D3F11E03A8BFD3F1200C08DB4FF0004283
:102DB00042EAC12252EA505232FA03F07047094205
:102DC0000BD4102BC4BF0020704703F5787CBCF1F6
:102DD000FF3F05D04FF0FF3070474FF000007047C5
:102DE00070B500F0EDF800BF4992248000207047D4
:102DF000F0E7000051EA030C17D41CF5801F58BF00
:102E0000BCF5801F00F10680994218BF704708BFCB
:102E10009042704707D711F5801F58BF13F5801FE8
:102E200019D499427047894270471CF5801F08D514
:102E3000BCF5801FF7D58B4218BF704708BF824290
:102E400070474FF4001C1CEB410F38BF1CEB430FC5
:102E500001D28B42704770B500F0B2F8922449005D
:102E60004FF000514FF08053FFF732BEDFF848C1FA
:102E700070B51CEA111E1EBF1CEA13159EEA0C0F4A
:102E800095EA0C0F00F06F8081EA030423EA4C13EB
:102E90004EEAD47E21EA4C1141F4801143F48013B0
:102EA000AE44A1FB024CA0FB0365AEF17F7E361958
:102EB00055EB0C05A1FB034C4CF10003A0FB021CDD
:102EC00016EB0C06654153F10003094218BF46F0AA
:102ED000010613F4007F0BD14FEA03314FEA0530AE
:102EE000340341EA155140EA16506FF003020AE03C
:102EF0004FEAC3214FEAC520F40241EA555140EAA6
:102F000056506FF0020202EB2E4201EB025585EAA9
:102F1000CE710AD05FEA440C18BF24F0004450F18F
:102F2000000041F1000120EAD47040F2FE7C6245CD
:102F300000D270BDA84214BF4FF080444FF040440F
:102F4000002E08BF0024BEF1806FA8BFA1F1C041D0
:102F5000BDE8704080F282804FF0000001F1C04176
:102F600001F0004170479EEA0C0F0CEA131518BFE0
:102F700095EA0C0F06D04FF0000081EA030E0EF028
:102F8000004170BD00F01CF88900013E00F007B858
:102F900000F009B84FEA430C5FEA5C5C08D081EAB4
:102FA000030100F05BB84FEA410C5FEA5C5CF6D1CC
:102FB0004FF00000014970470000FF070000F87F54
:102FC0000EF1020E2EF0030E5EF8046B364205D4AD
:102FD000012A43EB030515F5001F12D8012841EB28
:102FE000010C1CF5001F0CD80ED14FEAD17C15F551
:102FF000001F0CEB4C0C0CF1020C08BF4CEBD37C0B
:1030000004E04FF0080C01E04FEAD37C0CEB4C05D8
:1030100026FA05F606F00706B6F1040C06D20EEB0A
:10302000860CBDE870404CF0010C6047DFE80CF006
:10303000090B02024FF000414FF00000A1F5002102
:1030400070BD19461046012851EB010418BFD4F594
:10305000001484BF002001F0004170BD0808A0F5F5
:1030600000114FEA3101704753EA010C17D41CF5E7
:10307000801F58BFBCF5801F00F106808B4218BF2F
:10308000704708BF8242704707D713F5801F58BFAB
:1030900011F5801F19D48B4270479B4270471CF575
:1030A000801F08D5BCF5801FF7D5994218BF70471F
:1030B00008BF904270474FF4001C1CEB430F38BF11
:1030C0001CEB410F01D2994270470FB40CBC03BCFA
:1030D000FFF7C1BE10B591EA030F48BF83F000436C
:1030E0003FF556AC841A71EB030C07D212198CF021
:1030F000004C43EB0C03001B61EB0C01DFF8A4E177
:103100004FEA1154A4EB135C1EEA430F18BF9EEA6A
:10311000445F00F0B08023EA6E03524221EA04517A
:10312000C3EB6E0338BF5B1EDCF1200E25D322FA01
:103130000CFE10EB0E0043FA0CFE41EB0E01CCF13D
:10314000200E03FA0EFE10EB0E0051F10001CCF13F
:10315000200E29D412FA0EF201EB0451BDE8104002
:1031600058BF7047401C1CBFB2F1004F7047002889
:103170000CBF491C20F00100704712EB020E43EB1C
:10318000030218BF4FF0010E4EEA4202ACF1200CD0
:10319000DCF11E0E54D943FA0CFE10EB0E0051F177
:1031A000FF31CCF11E0ED5D50EF1010E12FA0EFE36
:1031B000404141EB010101EB445C5FEA5C5C10D9EA
:1031C00010EBDE7001EB045138BFBEF1004FBDE8DB
:1031D000104018BF704700280CBF491C20F00100A8
:1031E000704730D24FEAD42C11F5001124F400645A
:1031F0001BD0B1FA81F20B3AA41AA41ED2F120031B
:10320000914030FA03F31943904001EBCC71002C4C
:1032100001EB0451BDE81040A8BF704701F1C04167
:103220004FF0000001F000417047B0FA80F310FA4F
:1032300003F100D110BDE41A173C4805C90AE4E7C0
:1032400001EB045110BD491001EB0451BDE81040E1
:103250004FEA300002E04FF0000170474A0008BF1B
:103260000042F8D0B2F5001F28BF704701F00041BE
:103270004FF0000070479EEA445F07D011EA5E0FEE
:10328000BDE8104004BF002100207047BDE8104099
:1032900070B5FFF795FE00BF40DFF63E83F00041BA
:1032A000104670470000E0FF43004FEAD30C4FEA9E
:1032B0003C0C43401FBF40070CF1605113F0FE4F20
:1032C00070471CF0006F03D100200CF000417047E4
:1032D0000CF0004343EA507010B540EACC0000F017
:1032E000B0F800BF000000924FEA0001FFF7B6BE41
:1032F0004FF000414FF00000A1F5002170470000A1
:10330000C10DD1F19E0206DB4FEA002343F00043DA
:1033100023FA02F07047004207D54FEA4001B1F1AD
:10332000FE4F02D24FF00000704710B500F089F850
:1033300049922480002070476FEA20007047000007
:103340004FF47F0C1CEAD0121EBF1CEAD11392EA84
:103350000C0F93EA0C0F00F0478090EA010F48BF72
:1033600042F480724FF0004C4CEA00204CEA0121FC
:1033700002EB0302A0FB0113A2F50002002918BF13
:1033800043F001035B0028BF4FEA330342EB2242C4
:103390005FEA132C4CEBC2502EBFBCEB436FB2F56F
:1033A0007C0F70474FEA036CBCF1004F08BF20F060
:1033B0000100B2F57C0F38BF70470BD582F0FF02D9
:1033C00012F5803FC8BF704700F1C040D8BF00F081
:1033D0000040704700F5000C5FEA4C0C48BF704796
:1033E000B0F1C04000F073B890EA010F0CEAD113BD
:1033F00048BF42F48072624538BF634504D280EA18
:10340000010000F00040704710B500F01AF800BF4E
:103410008900013E00F007B800F009B85FEA410CEE
:103420005FEA1C6C08D080EA010000F050B85FEA47
:10343000400C5FEA1C6CF6D14FF00040A0F5800014
:1034400070470EF1020E2EF0030E5EF8044B24427C
:1034500004D44FEA4102B2F17F4F11D84FEA400342
:10346000B3F17F4F0CD80ED14FEAD07CB2F17F4F31
:103470000CEB4C0C0CF1020C08BF4CEBD17C04E0C3
:103480004FF0080C01E04FEAD17C0CEB4C0324FA1E
:1034900003F404F00704B4F1040C06D20EEB840C20
:1034A000BDE810404CF0010C6047DFE80CF0070865
:1034B00002024FF00040A0F5800010BD0846420017
:1034C00018BFD2F1807288BF00F0004010BDFF210C
:1034D00041EAD050C0057047F834000800000020D1
:1034E000D00000006C010008C8350008D0000020A2
:1034F000B8060000880100080080BB440080BB447F
:103500000080BB440080BB440080BB440080BB44BF
:1035100000000000000000005A010000005A0000F6
:10352000005A0000005A0000005A0000005A000033
:10353000005A000003E800335A010000005A00005E
:10354000005A0000005A0000005A0000005A000013
:10355000005A000003E800335A010000005A00003E
:10356000005A0000005A0000005A0000005A0000F3
:10357000005A000003E800330000B4420000B442E7
:103580000000B4420000B4420000B4420000B44263
:10359000000000000000000000000000000000002B
:1035A000000000000000000000000000000000001B
:1035B00000000000000000010203040102030406F1
:0835C0000708090204060800D7
:04000005080001CD21
:00000001FF
