:020000040800F2
:1000000028080020290200088D100008310E000881
:100010008910000879050008F11A000800000000A6
:10002000000000000000000000000000691200084D
:10003000A10A0008000000001D1100082914000892
:10004000430200084302000843020008430200087C
:10005000430200084302000843020008430200086C
:10006000430200084302000843020008430200085C
:1000700043020008430200087D050008430200080F
:10008000A90500080506000843020008430200080D
:10009000430200084302000843020008430200082C
:1000A00043020008951400084302000843020008B8
:1000B000430200084302000843020008430200080C
:1000C00043020008430200084302000843020008FC
:1000D000430200088916000843020008CD160008F4
:1000E00043020008430200084302000843020008DC
:1000F00043020008430200084302000843020008CC
:1001000043020008430200084302000843020008BB
:1001100043020008430200084302000843020008AB
:1001200031060008430200084302000843020008A9
:10013000430200084302000843020008430200088B
:10014000430200084302000843020008430200087B
:100150004302000843020008430200081517000884
:10016000430200084302000843020008430200085B
:10017000430200084302000843020008430200084B
:10018000430200084302000800F002F800F03CF8C7
:100190000AA090E8000C82448344AAF10107DA45E2
:1001A00001D100F031F8AFF2090EBAE80F0013F0F8
:1001B000010F18BFFB1A43F001031847D8190000BC
:1001C000F8190000103A24BF78C878C1FAD852074D
:1001D00024BF30C830C144BF04680C6070470000C1
:1001E0000023002400250026103A28BF78C1FBD840
:1001F000520728BF30C148BF0B6070471FB501F0E0
:10020000C4FC1FBD10B510BD00F0A8F81146FFF7E3
:10021000F5FF01F07DFC00F0C6F803B4FFF7F2FF34
:1002200003BC00F0CDF800000948804709480047AA
:10023000FEE7FEE7FEE7FEE7FEE7FEE7FEE7FEE796
:10024000FEE7FEE704480549054A064B70470000F3
:100250002D14000889010008280200202808002029
:100260002804002028040020032A40F2308010F0E7
:10027000030C00F0158011F8013BBCF1020F624441
:1002800098BF11F801CB00F8013B38BF11F8013BD2
:10029000A2F1040298BF00F801CB38BF00F8013B7F
:1002A00011F0030300F02580083AC0F0088051F8EF
:1002B000043B083A51F804CBA0E80810F5E7121DFA
:1002C0005CBF51F8043B40F8043BAFF30080D20719
:1002D00024BF11F8013B11F801CB48BF11F8012BE5
:1002E00024BF00F8013B00F801CB48BF00F8012B08
:1002F000704710B5203AC0F00B80B1E81850203A92
:10030000A0E81850B1E81850A0E81850BFF4F5AFB5
:100310005FEA027C24BFB1E81850A0E8185044BF3F
:1003200018C918C0BDE810405FEA827C24BF51F8AC
:10033000043B40F8043B08BF7047D20728BF31F8A0
:10034000023B48BF11F8012B28BF20F8023B48BFF1
:1003500000F8012B7047704770477047754600F0F2
:100360002BF8AE4605006946534620F00700854647
:1003700018B020B5FFF766FFBDE820404FF000063B
:100380004FF000074FF000084FF0000B21F007017D
:10039000AC46ACE8C009ACE8C009ACE8C009ACE8C0
:1003A000C0098D46704710B50446AFF30080204663
:1003B000BDE81040FFF731BF00487047C80100207A
:1003C00001491820ABBEFEE726000200704721B1AC
:1003D000826842F00102826003E0826822F001023A
:1003E000826070470021084A1168084A1140D0E92C
:1003F00000231A4383681A43C3681A431143044A0B
:10040000C2F804137047000004230140E030FCFFF1
:100410000020014021B1826842F48072826003E0D2
:10042000826822F480728260704721B1826842F44F
:100430000072826003E0826822F40072826070477A
:1004400030B50246002000235068104C20400D7942
:100450000C6844EA05242043506090680C4C20400E
:10046000D1E903542C438D682C434D7944EA45046B
:1004700020439060D06A20F470000C7D641EE4B2CA
:10048000234340EA0350D06230BD0000FFFEFFFC72
:10049000FDF7FFC0F0B504460D4600200021092DF0
:1004A00011DDE068A5F10A0606EB4607072606FA05
:1004B00007F18843A5F10A0606EB460603FA06F1A2
:1004C0000843E0600CE0206905EB4507072606FAC3
:1004D00007F1884305EB450603FA06F1084320615E
:1004E000072A0FDA606B561E06EB86071F2606FAF0
:1004F00007F18843561E06EB860605FA06F1084307
:10050000606322E00D2A0FDA206BD61F06EB860708
:100510001F2606FA07F18843D61F06EB860605FA62
:1005200006F10843206310E0E06AA2F10D0606EB35
:1005300086071F2606FA07F18843A2F10D0606EB8F
:10054000860605FA06F10843E062F0BD816841F0D5
:10055000804181607047000010B50121054800F01E
:10056000DFFD0121880200F0FBFD00F0C9FB00F077
:10057000E1F810BD2000400000BFFEE710B50849BB
:10058000084800F00FFA012808D10021054800F0C2
:10059000C5F84FF0C051034800F08CF810BD0000C2
:1005A000008000185860024010B51149114800F051
:1005B000F9F901281AD100210E4800F0AFF80E49D0
:1005C0000C4800F077F801210A4800F0A7F845210F
:1005D0000848183000F062FA452208490848FFF739
:1005E00088FE01210348183000F098F810BD000083
:1005F00000880020886002400008002000000020E1
:100600000800002010B50749074800F0CBF9012881
:1006100007D10021044800F081F80449024800F0A5
:1006200049F810BD00802020A0600240000020207A
:1006300010B52DED028B1B491B4800F0B3F968B3D0
:100640001849194800F050F80021174800F066F8E2
:100650000221154800F022FA14490888C11700EB5E
:10066000115109134CF25032514342F2486291FB4E
:10067000F2F100EE101AB8EEC08A282408E0A4F1C6
:100680002800B0EE480A01F03BFA09490855641CFD
:100690002C2CF4DB0121044800F040F8BDEC028B67
:1006A00010BD00002080001010640240A000002057
:1006B0004C0100200246094B9A4201D2084801E051
:1006C0000648103801F000531BB1064B0B40C360C5
:1006D00002E0044B0B40836070470000106402404E
:1006E000006002407D0F7D0F0246094B9A4201D205
:1006F000084801E00648103801F000531BB1064BD2
:100700000B40C36002E0044B0B4083607047000065
:1007100010640240006002407D0F7D0F21B102682D
:1007200042F00102026003E0026822F0010202606E
:100730007047000000B59BB04FF4C06000F0E4FCCF
:1007400038208DF8040002208DF8050003208DF874
:10075000060000208DF8070001A800F099FC4FF07A
:10076000806006902F4807902F480890002009903D
:1007700001200A9000200B900C904FF400600D9027
:1007800080000E9040110F904002109000201190B8
:100790000120129000201390149006A9234800F025
:1007A00051F901212148FFF7B9FF012210211F480B
:1007B00000F02AF9002002904FF4803003900020CE
:1007C0000490059002A8FFF70DFE002015908DF80B
:1007D00058008DF859001790199001208DF8680085
:1007E00015A910484C38FFF72BFE01231A460921A2
:1007F0000C484C38FFF74EFE01210A484C38FFF7F1
:1008000014FE012107484C38FFF704FE012105487A
:100810004C38FFF7DCFD03484C38FFF797FE1BB060
:1008200000BD00004C220140A000002010640240E6
:10083000016821F0010101600021016041608160D7
:10084000C1600161212141614A49884204D13D21B1
:10085000484A103A91608CE046491831884205D1E7
:100860004FF47461434A103A916082E0414930315B
:10087000884205D14FF474113E4A103A916078E0F5
:100880003C494831884205D14FF07461394A103AE9
:1008900091606EE037496031884204D13649354A6B
:1008A000103AD16065E033497831884204D1334948
:1008B000304A103AD1605CE02E499031884204D130
:1008C0002F492C4A103AD16053E02A49A831884276
:1008D00005D14FF03D51274A103AD16049E02949EE
:1008E000884204D13D21274A083A116041E0254958
:1008F0001831884205D14FF47461224A083A1160D8
:1009000037E020493031884205D14FF474111D4A37
:10091000083A11602DE01B494831884205D14FF05B
:100920007461184A083A116023E016496031884220
:1009300004D11149134A121F11601AE0114978318C
:10094000884204D10D490F4A121F116011E00D4970
:100950009031884204D10A490A4A121F116008E006
:100960000849A831884204D14FF03D51054A121F71
:1009700011607047106002403D000020400F0020D1
:1009800000003D2010640240014600200A6802F089
:1009900001020AB1012000E00020704701464868CA
:1009A00080B2704770B50246002000240025124E28
:1009B000B24201D2114B01E00F4B103B104E0E40E2
:1009C00036B11E2606EAD124166806EA040502E0BE
:1009D000566906F0800501F000560EB15C6800E033
:1009E0001C68084E344004EA010616B10DB101201E
:1009F00000E0002070BD0000106402400060024072
:100A00003C0F3C0F7D0F7D0F10B501F080034BB103
:100A100022B1436943F08003436103E0436923F05B
:100A20008003436180290BD02AB1036801F01E04C2
:100A30002343036004E0036801F01E04A343036042
:100A400010BD000010B500220268134B1A40CC689C
:100A50000B6823434C6923438C692343CC692343AC
:100A60000C6A23434C6A23438C6A23434C6B234315
:100A70008C6B23431A430260426922F00702D1E9DA
:100A80000B3423431A4342610B6943604B68836014
:100A90008B68C36010BD00003F801CF04160704750
:100AA0007047000010B5054805490A6802604968AA
:100AB000416001210348FFF731FE10BD51000020C5
:100AC000900000205860024010B5054805490A68AA
:100AD00002604968416001210348FFF71FFE10BD15
:100AE00051000020000000205860024010B5054869
:100AF00005490A6802604968416001210348FFF71F
:100B00000DFE10BD510000208800002058600240FA
:100B100010B504460121880400F012FB01214805AC
:100B200000F0FEFA0121082000F0FAFA072208215D
:100B3000694800F03DF907220921674800F038F9BB
:100B40004FF48070654908600220487108710020E8
:100B500088710120C871604800F0E2F84FF400701D
:100B60005E49086002204871087100208871C871D0
:100B7000594800F0D5F85A48FFF75AFE4FF0006088
:100B80005849086058484860584888600020C86044
:100B900014200861002048614FF4806088610020C3
:100BA000C86108624FF48070486240028862002089
:100BB000C862012008630020486388634848FFF743
:100BC00041FF4B480460002049498880C880088163
:100BD0000C204881002088814348001F00F022FE3D
:100BE0003F483030FFF724FE4FF000603D49086079
:100BF0003D4848603F4888604020C8600820086140
:100C0000002048614FF4806088610020C86108625C
:100C100048624FF4003088620020C86201200863F7
:100C20000020486388632E483030FFF70BFF4FF4F5
:100C3000E06000F069FA0C202F490870002048702D
:100C4000022088700120C870084600F021FA0E20AA
:100C5000294908700020487001208870C870084633
:100C600000F016FA2720244908700020487003205D
:100C700088700120C870084600F00AFA012118485F
:100C8000FFF74CFD002116483030FFF747FD0122E9
:100C900080211548001F00F06DFD012240211248FF
:100CA000001F00F067FD012210210D483030FFF7D2
:100CB000ABFE12490A483030FFF716FD012240F220
:100CC00024410948001F00F088FD01210648001F4B
:100CD00000F044FD10BD0000000C02407400002034
:100CE0002860024010010020044800405900002004
:100CF00000010020510000206D000020008000183D
:100D00001CB50820009003208DF8040000208DF809
:100D100007006946014800F003F81CBD00140240BA
:100D2000F0B50A4600210023002400BF3DE0012564
:100D300005FA01F3156805EA03049C4234D10568FD
:100D40004F000326BE40B543056015794E00B540FF
:100D50000668354305601579012D02D01579022DFD
:100D600016D185684F000326BE40B543856055798E
:100D70004E00B540866835438560456801268E4043
:100D8000B5434560456896798E40B6B235434560B7
:100D9000C5684F000326BE40B543C560D5794E00F7
:100DA000B540C6683543C560491C1029BFD3F0BDA6
:100DB000F0B5002300244D07ED0E02FA05F3CE1026
:100DC00000F1200555F826504E07F70E0F26BE40BD
:100DD000B543CF1000F1200646F82750CE1000F1A1
:100DE000200555F8265045EA0304CE1000F12005F1
:100DF00045F82640F0BD41837047018370470000ED
:100E000010B50848FFF7A2FB282408E0A4F1280148
:100E10000548008800F06EFE04490855641C2C2C1F
:100E2000F4DB10BD00220140A00000204C01002096
:100E300000BFFEE710B504460121202000F090F924
:100E40000121880500F06CF90121042000F068F907
:100E5000082207213548FFF7ABFF8020344908609E
:100E600002204871087100208871C8712F48FFF76F
:100E700057FF3048FFF7DCFC4FF020602E49086038
:100E80002E4848602E4888600020C8602B200861EA
:100E9000002048614FF4806088610020C8610862CA
:100EA0004FF480704862400288620020C8620120CE
:100EB00008630020486388631E48FFF7C3FD21488C
:100EC000046000201F498880C88008810420488170
:100ED000002088811948001F00F0A4FC4FF4E06056
:100EE00000F012F9472018490870002048700720C8
:100EF00088700120C870084600F0CAF801210D482A
:100F0000FFF70CFC012240210C48001F00F032FCCE
:100F1000012240F224410948001F00F05EFC01213B
:100F20000648001F00F01AFC10BD00000008024037
:100F300074000020406402401001002004140140AD
:100F4000B4000020000100206D00002010B5044610
:100F50000121102000F004F90121880500F0E0F8DB
:100F60000121084600F0DCF8072209213E48FFF77E
:100F70001FFF07220A213C48FFF71AFF4FF40070B9
:100F80003A490860022048710871002088710120E8
:100F9000C8713548FFF7C4FE4FF4806033490860DC
:100FA00002204871087100208871C8712E48FFF72F
:100FB000B7FE2F48046000202D498880C880088132
:100FC0000C204881002088812A4800F02BFC2A4808
:100FD000FFF72EFC00BF2848FFF7D6FC0028FAD107
:100FE0004FF00060254908602248001D48602448F1
:100FF00088600020C86021200861002048614FF40B
:10100000806088610020C86108624FF48070486287
:10101000000288620020C862032008630020486341
:1010200088631548FFF70EFD252016490870032038
:10103000487088700120C870084600F029F8012225
:1010400040F224410B4800F0C8FB0122402109482E
:1010500000F090FB0121074800F080FB01210648C9
:10106000FFF75CFB10BD0000000002407400002090
:10107000000100200010014088640240100100209F
:10108000DF0000206D00002000BFFEE77047000079
:1010900070B5002100230F22C4781CB3174C2468BC
:1010A00004F4E064C4F5E064C4F30721C1F104046E
:1010B000E3B20A4144789C40E1B284781440214371
:1010C0000C07210E0E4C05786155047804F01F05BD
:1010D0000124AC4005786D11AD0005F1E025C5F89F
:1010E000004109E0047804F01F050124AC40054DDF
:1010F0000678761145F8264070BD00000CED00E042
:1011000000E400E080E100E002490143024A11608E
:10111000704700000000FA050CED00E07047000089
:1011200029B1064A12680243044B1A6004E0034ADC
:1011300012688243014B1A60704700003038024049
:1011400029B1064A12680243044B1A6004E0034ABC
:1011500012688243014B1A60704700004038024019
:1011600029B1064A12680243044B1A6004E0034A9C
:1011700012688243014B1A607047000044380240F5
:10118000F0B5002100220024022500260223324F60
:101190003F6807F00C0121B1042905D0082937D197
:1011A00005E02E4F076036E02D4F076033E02A4FF1
:1011B0003F1F3F68C7F38056274F3F1F3F6807F028
:1011C0003F036EB1264FB7FBF3F7DFF88CC0ACF1ED
:1011D000040CDCF800C0CCF3881C07FB0CF40CE01A
:1011E0001E4FB7FBF3F7DFF870C0ACF1040CDCF86E
:1011F00000C0CCF3881C07FB0CF4174F3F1F3F685F
:10120000C7F301477F1C7D00B4FBF5F7076002E0E0
:10121000124F076000BF00BF0F4F3F6807F0F0019B
:101220000909104F7A5C0768D74047600A4F3F684A
:1012300007F4E051890A0B4F7A5C4768D740876012
:10124000054F3F6807F46041490B064F7A5C4768D9
:10125000D740C760F0BD0000083802400024F40009
:1012600000127A00A20000207047000010B5012192
:101270000846FFF775FF1920124908700120C87051
:101280004870002088700846FFF702FF40F2E73000
:101290000D49486040F28F60088000200881488036
:1012A00088720A4800F0AEF90121084800F092F96E
:1012B00001221146054800F09CF90121034800F085
:1012C0008CF910BD6D000020BC0100200000014021
:1012D00010B501212020FFF723FF01210420FFF793
:1012E0001FFF4FF4007012490860012008710020B0
:1012F0008871022048710020C8710E48FFF710FD68
:101300004FF400710B48FFF778FD01200849086091
:10131000087100208871022048710020C8710648B9
:10132000FFF7FEFC4FF400710348FFF766FD10BDA8
:101330007400002000140240000802400CB5002098
:10134000019000903448006840F4803032490860D1
:1013500000BF3148006800F4003000900198401C44
:101360000190009818B90198B0F5A04FF1D12A4822
:10137000006800F4003010B10120009001E000206E
:1013800000900098012846D123484030006840F082
:1013900080502149403108602048006840F44040B6
:1013A0001E4908601C48083000681B490831086065
:1013B0000846006840F4004008600846006840F4B1
:1013C000A05008601648091F0860081F006840F018
:1013D0008070091F086000BF0F48006800F00070AF
:1013E0000028F9D040F205700E4908600A4808301C
:1013F000006820F0030008490831086008460068CA
:1014000040F00200086000BF03480830006800F0A8
:101410000C000828F8D10CBD0038024000700040D4
:1014200008544007003C02407047000010B51548C2
:10143000006840F47000134908601348006840F0E9
:1014400001001149086000200F49083108600E486A
:1014500000680E4908400C4908600D48091D0860E5
:10146000081F006820F48020091F0860002006493A
:101470000C310860FFF762FF4FF0006001498039CE
:10148000086010BD88ED00E000380240FFFFF6FE66
:101490001030002410B545480068401C43490860DE
:1014A0000121434800F096F840480068032819D10C
:1014B000FFF70AFB4FF400713E48FFF79CFC4FF426
:1014C00000713D48FFF797FC3C4800785A286CD1E2
:1014D0003A488078022868D1142238493848FEF703
:1014E000C3FE62E03148006805285ED100202F4924
:1014F0000860FFF7D7FA4FF400712E48FFF77DFC24
:101500004FF400712C48FFF778FC2C4800785A28DB
:101510000ED12A48807801280AD1142006E0A0F1D3
:101520001401264A515C264A1154401C2828F6DB37
:1015300024480078FF281AD1224890F82800332840
:1015400015D12C2006E0A0F122011E4A515C1C4A54
:101550001154401C3828F6DB1A4890F82900184925
:1015600081F83800174890F82A0081F83900FFF711
:1015700047FC1548007855280ED11348407851286B
:101580000AD13A2006E0A0F13A010F4A515C0C4A18
:101590001154401C4528F6DB452209490B48FEF74B
:1015A00063FE01210A48FFF7B9F810BD840000204E
:1015B00000000140001402400008024059000020D1
:1015C0004C010020B4000020DF00002008000020B3
:1015D000A0600240CA430282704721B1028842F0F3
:1015E0000102028004E002884FF6FE731A40028076
:1015F00070471AB183890B43838102E083898B434F
:101600008381704700220288184B98420ED0184BF5
:1016100098420BD0B0F1804F08D0164B984205D0BD
:10162000154B984202D0154B984204D14FF68F7358
:101630001A404B881A43124B984207D0114B9842DC
:1016400004D04FF6FF431A400B891A4302804B68BF
:10165000C3620B880385054B984202D0044B984225
:1016600001D18B7A038601238382704700000140F9
:10167000000401400004004000080040000C00404D
:10168000001000400014004010B540F224410C4806
:1016900000F079F890B100210A48FFF73FF80848B8
:1016A0000488848808490748FFF704F82121054881
:1016B000FFF7F4F901210348FFF730F810BD0000EF
:1016C0000010014088640240400F002010B540F235
:1016D00024410E4800F057F8B0B100240B480488AC
:1016E000001D048800210A48FFF718F80848FFF792
:1016F00055F9C0F1140414210548FFF7CFF9012171
:101700000348FFF70BF800BF10BD00000048004081
:101710002860024010B540F224410E4800F033F832
:10172000B0B100240B480488001D048800210A4839
:10173000FEF7F4FF0848FFF731F9C0F12B042B2125
:101740000548FFF7ABF901210348FEF7E7FF00BFAB
:1017500010BD0000001401404064024021B18289A4
:1017600042F40052828104E082894DF6FF731A40F0
:10177000828170471AB1838A0B43838202E0838A95
:101780008B438382704770B50246002400230025F6
:10179000002040F66A16B14200D100BFC1F34215E5
:1017A00001F01F03012606FA03F3012D02D19689E9
:1017B000334006E0022D02D1168A334001E0968ABA
:1017C00033400C12012606FA04F41688344013B193
:1017D0000CB1012000E0002070BDF0B503460024EC
:1017E00000260025002040F66A17B94200D100BF4C
:1017F0001846C1F3421401F01F06012707FA06F547
:10180000012C01D10C3004E0022C01D1103000E099
:1018100014301AB107682F43076002E00768AF432E
:101820000760F0BD2DE9FF4705460E460024A1469E
:1018300000BFA046B08900B100BF2C8A24F44054F8
:10184000F08804432C82AC8941F20C608443B08858
:1018500031890843718908430443AC81AC8A24F47C
:101860004074B0890443AC826846FFF789FC204885
:10187000854202D01F48854202D1DDF80C9001E07C
:10188000DDF80890A88900F4004040B109EBC900D8
:1018900000EB091031684900B0FBF1F707E009EBF4
:1018A000C90000EB091031688900B0FBF1F7642032
:1018B000B7FBF0F004012009642101FB1078A8892E
:1018C00000F4004040B1322000EBC800B0FBF1F062
:1018D00000F00700044308E0322000EB0810642108
:1018E000B0FBF1F000F00F0004432C81BDE8FF874E
:1018F000001001400014014010B5044601214804C5
:10190000FFF71EFC01214805FFF70AFC01210846EC
:10191000FFF706FC072202216A48FFF749FA042074
:10192000694908600220487108710020887101200F
:10193000C8716448FFF7F4F9082063490860022081
:101940004871087100208871C8715E48FFF7E8F996
:101950005E48FEF76DFF4FF000605D4908605D482E
:1019600048605D4888600020C8600420086100204D
:1019700048614FF4806088610020C86108624FF4BC
:1019800080704862400288620020C86201200863BB
:101990000020486388634D48FFF754F84B481830DF
:1019A000FEF746FF4FF0006049490860494848602B
:1019B0004A4888604020C86045200861002048618E
:1019C0004FF4806088610020C861086248624FF46B
:1019D000003088620020C86201200863002048634C
:1019E00088633A481830FFF72DF83D48046000201E
:1019F0003B498880C88008810C204881002088816C
:101A00003448001FFFF70EFF4FF4E060FFF77CFB48
:101A1000102034490870002048700420887001208C
:101A2000C8700846FFF734FB11202E4908700020CB
:101A30004870062088700120C8700846FFF728FB10
:101A40002620284908700020487005208870012051
:101A5000C8700846FFF71CFB01211C48FEF75EFE1C
:101A600000211A481830FEF759FE0122802119483A
:101A7000001FFFF77FFE012240211648001FFFF7DD
:101A800079FE012210211148FEF7BEFF012210212C
:101A90000E481830FEF7B8FF13490C48FEF724FE35
:101AA00012490A481830FEF71FFE012240F2244175
:101AB0000848001FFFF791FE01210648001FFFF7AD
:101AC0004DFE10BD000002407400002088600240FE
:101AD00010010020044400404D00002008000020B8
:101AE000000100206D0000200088002000802020E0
:101AF00000BFFEE708B5024600921DF8010008BDD0
:101B000008B501468DED000A1DF8010008BD000072
:101B1000FFF7DEFB4FF41650FFF718FA4FF4E130F1
:101B2000FFF7EAFE4FF4E130FEF7F2FFFEF714FD97
:101B30004FF4E130FFF77EF9FEF7D8FFFFF796FB91
:101B400012E00A4890F82A00FF280DD10021084829
:101B5000FFF743FD40F2DC5000F00CF8FEF7C6FF43
:101B600001210348FFF739FDEBE70000B400002036
:101B700000000140014605E07B2200E0521E002AE1
:101B8000FCD1491E0029F7D170474FF04070E1EEBB
:101B9000100A7047B41B000800000020B4000000C9
:101BA000C4010008681C0008B4000020740700008D
:101BB000E00100085A0101000000005C070000007D
:101BC0000000000000000000000000000000000015
:101BD0000000000000000000000000000000000005
:101BE00000000000000000000000000000000000F5
:101BF00000000000000000000000000000000000E5
:101C000000000000000500000000000000060000C9
:101C100000000000000000000000000000000000C4
:101C200000000000000000000000000000000000B4
:101C30000000000000000000000000005A01100039
:101C40000000FF6A5A0102000000005D5A01100006
:101C50000000208B000000000000010203040102CC
:081C6000030406070809000057
:040000050800018965
:00000001FF
