:020000040800F2
:1000000098070020CD010008F11D000831170008F5
:10001000ED1D0008930500080128000800000000FD
:10002000000000000000000000000000E91F0008C0
:100030007F15000800000000791E0008D520000888
:10004000E7010008E7010008E7010008E7010008F0
:10005000E7010008E7010008E7010008E7010008E0
:10006000E7010008E7010008E7010008E7010008D0
:10007000E9120008E7010008E7010008E7010008AD
:10008000E7010008E701000875030008E701000820
:10009000E7010008E7010008E7010008E7010008A0
:1000A000E7010008E7010008E7010008E701000890
:1000B00039210008E7010008E7010008E70100080E
:1000C000E7010008E7010008E7010008E701000870
:1000D000E7010008D5250008E7010008E70100084E
:1000E000E7010008E7010008E7010008E701000850
:1000F000E7010008E7010008E7010008E701000840
:10010000E7010008E7010008E7010008E70100082F
:10011000E7010008E7010008E7010008E70100081F
:10012000E7010008E7010008E7010008E70100080F
:1001300000F002F800F03AF80AA090E8000C8244BF
:100140008344AAF10107DA4501D100F02FF8AFF29C
:10015000090EBAE80F0013F0010F18BFFB1A43F0A5
:10016000010318474C3500006C350000103A24BFDD
:1001700078C878C1FAD8520724BF30C830C144BF0C
:1001800004680C607047000000230024002500264E
:10019000103A28BF78C1FBD8520728BF30C148BFEA
:1001A0000B6070471FB51FBD10B510BD00F0A8F85B
:1001B0001146FFF7F7FF02F025FB00F0C6F803B485
:1001C000FFF7F2FF03BC00F0CDF8000009488047BC
:1001D00009480047FEE7FEE7FEE7FEE7FEE7FEE729
:1001E000FEE7FEE7FEE7FEE704480549054A064B41
:1001F00070470000D9200008310100089801002054
:10020000980700209803002098030020032A40F25A
:10021000308010F0030C00F0158011F8013BBCF1A8
:10022000020F624498BF11F801CB00F8013B38BFC0
:1002300011F8013BA2F1040298BF00F801CB38BFCE
:1002400000F8013B11F0030300F02880083AC0F0E9
:10025000088051F8043B083A51F804CBA0E8081094
:10026000F5E7121D5CBF51F8043B40F8043BAFF3C7
:100270000080D20724BF11F8013B11F801CB48BF21
:1002800011F8012B24BF00F8013B00F801CB48BF57
:1002900000F8012B704770477047704710B5203A3F
:1002A000C0F00B80B1E81850203AA0E81850B1E82F
:1002B0001850A0E81850BFF4F5AF5FEA027C24BFE5
:1002C000B1E81850A0E8185044BF18C918C0BDE8DC
:1002D00010405FEA827C24BF51F8043B40F8043BA5
:1002E00008BF7047D20728BF31F8023B48BF11F85A
:1002F000012B28BF20F8023B48BF00F8012B7047B4
:10030000754600F02BF8AE4605006946534620F0CE
:100310000700854618B020B5FFF766FFBDE820400E
:100320004FF000064FF000074FF000084FF0000BB1
:1003300021F00701AC46ACE8C009ACE8C009ACE864
:10034000C009ACE8C0098D46704710B50446AFF34C
:1003500000802046BDE81040FFF731BF00487047DD
:100360003401002001491820ABBEFEE72600020040
:100370007047000010B50C4800F062F804464FF4D6
:100380000871094800F014F8B4F5FA7F03DDFF2086
:100390000649087002E00020044908700121024863
:1003A00000F0E7F810BD000000240140F20000203A
:1003B00000220A12D3430360704721B1826842F0E1
:1003C0000102826003E0826822F0010282607047CD
:1003D00010B504461248844208D10121401501F0AD
:1003E00089FD0021601501F085FD17E00D4884426C
:1003F00008D10121001501F07DFD0021201501F03B
:1004000079FD0BE00848844208D10121C80301F0BE
:1004100071FD00214FF4004001F06CFD10BD0000A3
:100420000024014000280140003C0140014600201A
:100430008A6802F004020AB1012000E0002070473F
:100440000146C86C80B2704710B50023CBB21AB118
:1004500044681C43446002E044689C43446010BD0F
:1004600030B502460020002350680F4C20400D7923
:100470000C6844EA05242043506090680B4C2040EF
:10048000D1E902542C434D7944EA4504204390605D
:10049000D06A20F470000C7C641EE4B2234340EA6E
:1004A0000350D06230BD0000FFFEF0FFFDF7F1FF0A
:1004B000F0B504460D4600200021092D11DDE0684D
:1004C000A5F10A0606EB4607072606FA07F1884358
:1004D000A5F10A0606EB460603FA06F10843E060BA
:1004E0000CE0206905EB4507072606FA07F188436B
:1004F00005EB450603FA06F108432061072A0FDAE7
:10050000606B561E06EB86071F2606FA07F1884326
:10051000561E06EB860605FA06F10843606322E0E4
:100520000D2A0FDA206BD61F06EB86071F2606FA68
:1005300007F18843D61F06EB860605FA06F1084345
:10054000206310E0E06AA2F10D0606EB86071F2685
:1005500006FA07F18843A2F10D0606EB860605FAB6
:1005600006F10843E062F0BD816841F00801816056
:10057000704721B1826842F4A002826003E0826881
:1005800022F4A00282607047816841F0040181601A
:10059000704700BFFEE700002DE9F04104460D461C
:1005A0000022074B2046294602F04CFD074602F088
:1005B000DFFC86B23146034801F0B4FFBDE8F081AC
:1005C00000003440000400401FB58AB00A98072894
:1005D0007DD2DFE810F07C000700230151024703C1
:1005E000520448050020FE49DDE90C2302F05EFEBE
:1005F0000022FC4BCDE9000102F058FE0022FA4B2C
:10060000CDE9020102F01EFD0022F84BCDE9040104
:1006100002F056FBCDE90801F548006802F030FF12
:10062000CDE90601DDE9082302F0D0FC69D2F048EB
:10063000006802F025FFEF4AEF4BCDE9060102F01A
:100640008BFACDE9080102F055FAE949086008463D
:10065000006802F041FF80B201460990E74801F0CE
:100660005DFF0020DE49DDE90C2302F01FFE0022C1
:10067000DC4BCDE9000102F019FE0022DA4BCDE996
:10068000020102F0DFFC0022D84BCDE9040102F0A8
:1006900017FBCDE90801D648006802F0F1FECDE96C
:1006A0000601DDE9082302F0CBFD29D80020CC4962
:1006B000DDE90C2302F0FAFD0022CA4BCDE902016C
:1006C00002F0F4FD0022C84BCDE9040100E0C8E2CD
:1006D00002F0B8FC0022C54BCDE9060102F0F0FAA9
:1006E000CDE9080102F006FAC14908600846006831
:1006F00002F0F2FE80B201460990C04801F00EFF00
:100700008BE00020B649DDE90C2302F0CFFD00228A
:10071000B44BCDE9000102F0C9FD0022B24BCDE996
:10072000020102F08FFC0022B04BCDE9040102F07F
:10073000C7FACDE90801AE48006802F0A1FECDE994
:100740000601DDE9082302F07BFD66D2A8480068B7
:1007500002F096FEA74AA84BCDE9060102F0A6FDDD
:10076000CDE9080102F0C6F9A14908600846006811
:1007700002F0B2FE80B201460990A04801F0CEFE20
:1007800000209749DDE90C2302F090FD0022954BF3
:10079000CDE9000102F08AFD0022934BCDE9020170
:1007A00002F050FC0022914BCDE9040102F088FADE
:1007B000CDE908018E48006802F062FECDE906012D
:1007C000DDE9082302F002FC27D800208449DDE996
:1007D0000C2302F06BFD0022824BCDE9020102F0F6
:1007E00065FD0022804BCDE9040102F02BFC0022C4
:1007F0007E4BCDE9060102F063FACDE9080102F073
:1008000079F97B4908600846006802F065FE80B20D
:1008100001460990794801F081FE22E200207049EA
:10082000DDE90C2302F042FD00226E4BCDE9000110
:1008300002F03CFD00226C4BCDE9020102F002FC0B
:1008400000226A4BCDE9040102F03AFACDE9080131
:100850006B48006802F014FECDE90601DDE90823CB
:1008600002F0B4FB67D26648006802F009FE614AF4
:10087000614BCDE9060102F06FF9CDE9080102F004
:1008800039F95F4908600846006802F025FE80B229
:1008900001460990594801F043FE00205049DDE926
:1008A0000C2302F003FD00224E4BCDE9000102F0C3
:1008B000FDFC00224C4BCDE9020102F0C3FB0022FB
:1008C0004A4BCDE9040102F0FBF9CDE908014C489F
:1008D000006802F0D5FDCDE90601DDE9082302F04C
:1008E000AFFC27D800203E49DDE90C2302F0DEFCF6
:1008F00000223C4BCDE9020102F0D8FC00223A4B29
:10090000CDE9040102F09EFB0022384BCDE906013F
:1009100002F0D6F9CDE9080102F0ECF83849086098
:100920000846006802F0D8FD80B2014609903348BD
:1009300001F0F6FD9FE000202949DDE90C2302F0DB
:10094000B5FC0022274BCDE9000102F0AFFC0022EC
:10095000254BCDE9020102F075FB0022234BCDE9C6
:10096000040102F0ADF9CDE908012548006802F064
:1009700087FDCDE90601DDE9082302F061FC7AD2AA
:100980001F48006802F07CFD1A4A1B4BCDE90601A6
:1009900002F08CFCCDE9080102F0ACF818490860BF
:1009A0000846006802F098FD80B20146099013489D
:1009B00001F0B6FD00200A49DDE90C2302F076FCC7
:1009C0000022084BCDE9000102F070FC0022064B2A
:1009D000CDE9020102F036FB0022044B12E00000D8
:1009E00000806640008046C000408F400080564036
:1009F000000000201CC7711CC77153400008004054
:100A000004000020CDE9040102F05AF9CDE9080103
:100A1000FE48006802F034FDCDE90601DDE9082357
:100A200002F0D4FA27D80020F949DDE90C2302F0BE
:100A30003DFC0022F74BCDE9020102F037FC002219
:100A4000F54BCDE9040102F0FDFA0022F34BCDE9AC
:100A5000060102F035F9CDE9080102F04BF8EB4947
:100A600008600846006802F037FD80B20146099030
:100A7000EB4801F055FDD0E60022E64BDDE90C0124
:100A800002F014FC0022E44BCDE9020102F0DAFA94
:100A90000022E24BCDE9040102F012F9CDE9080190
:100AA000E048006802F0ECFCCDE90601DDE908232E
:100AB00002F08CFA5BD2DB48006802F0E1FCDA4A13
:100AC000DA4BCDE9060102F047F8CDE9080102F062
:100AD00011F8D44908600846006802F0FDFC80B2B5
:100AE00001460990CE4801F01DFD0022C94BDDE909
:100AF0000C0102F0DBFB0022C74BCDE9020102F042
:100B0000A1FA0022C54BCDE9040102F0D9F8CDE9E4
:100B10000801C448006802F0B3FCCDE90601DDE934
:100B2000082302F08DFB21D80022BA4BDDE90C012D
:100B300002F0BCFB0022B84BCDE9040102F082FABE
:100B40000022B64BCDE9060102F0BAF8CDE9080162
:100B500001F0D0FFB34908600846006802F0BCFC11
:100B600080B201460990AE4801F0DCFC79E0002239
:100B7000A84BDDE90C0102F099FB0022A64BCDE960
:100B8000020102F05FFA0022A44BCDE9040102F059
:100B900097F8CDE90801A348006802F071FCCDE99F
:100BA0000601DDE9082302F04BFB5AD29D4800689C
:100BB00002F066FC9C4A9D4BCDE9060102F076FBF3
:100BC000CDE9080101F096FF9649086008460068E3
:100BD00002F082FC80B201460990914801F0A2FC2B
:100BE00000228C4BDDE90C0102F060FB00228A4BF5
:100BF000CDE9020102F026FA0022884BCDE904017A
:100C000002F05EF8CDE908018648006802F038FC81
:100C1000CDE90601DDE9082302F0D8F921D8002248
:100C20007C4BDDE90C0102F041FB00227A4BCDE95F
:100C3000040102F007FA0022784BCDE9060102F028
:100C40003FF8CDE9080101F055FF764908600846F4
:100C5000006802F041FC80B201460990704801F042
:100C600061FC31E300226B4BDDE90C0102F01EFB5D
:100C70000022694BCDE9020102F0E4F90022674B42
:100C8000CDE9040102F01CF8CDE9080168480068CC
:100C900002F0F6FBCDE90601DDE9082302F096F942
:100CA0005BD26348006802F0EBFB5F4A5F4BCDE923
:100CB000060101F051FFCDE9080101F01BFF5C497D
:100CC00008600846006802F007FC80B201460990FF
:100CD000534801F029FC00224E4BDDE90C0102F0E3
:100CE000E5FA00224C4BCDE9020102F0ABF90022FB
:100CF0004A4BCDE9040101F0E3FFCDE908014C487E
:100D0000006802F0BDFBCDE90601DDE9082302F031
:100D100097FA21D800223F4BDDE90C0102F0C6FA18
:100D200000223D4BCDE9040102F08CF900223B4B3F
:100D3000CDE9060101F0C4FFCDE9080101F0DAFEBA
:100D40003B4908600846006802F0C6FB80B20146D5
:100D50000990334801F0E8FB8EE000222D4BDDE9DD
:100D60000C0102F0A3FA00222B4BCDE9020102F0A4
:100D700069F90022294BCDE9040101F0A1FFCDE979
:100D800008012B48006802F07BFBCDE90601DDE994
:100D9000082302F055FA6FD22548006802F070FB74
:100DA000214A224BCDE9060102F080FACDE9080183
:100DB00001F0A0FE1E4908600846006802F08CFBA6
:100DC00080B201460990164801F0AEFB0022114B9B
:100DD000DDE90C0102F06AFA00220F4BCDE90201B5
:100DE00002F030F900220D4BCDE9040101F068FF5B
:100DF000CDE908010E48006802F042FBCDE906018A
:100E0000DDE9082302F0E2F836D813E00400002000
:100E100000806640008046C000408F400080564001
:100E200000080040080000201CC7711CC771534017
:100E30000C0000200022FE4BDDE90C0102F036FA26
:100E40000022FC4BCDE9040102F0FCF80022FA4B31
:100E5000CDE9060101F034FFCDE9080101F04AFEB9
:100E6000F64908600846006802F036FB80B2014689
:100E70000990F34801F058FB26E20022EC4BDDE933
:100E80000C0102F013FA0022EA4BCDE9020102F054
:100E9000D9F80022E84BCDE9040101F011FFCDE9BA
:100EA0000801E848006802F0EBFACDE90601DDE947
:100EB000082302F08BF85BD2E248006802F0E0FA07
:100EC000E14AE24BCDE9060101F046FECDE9080119
:100ED00001F010FEDB4908600846006802F0FCFAE9
:100EE00080B201460990DA4801F018FB0022D04B8D
:100EF000DDE90C0102F0DAF90022CE4BCDE9020166
:100F000002F0A0F80022CC4BCDE9040101F0D8FE9C
:100F1000CDE90801CB48006802F0B2FACDE906013C
:100F2000DDE9082302F08CF921D80022C04BDDE96D
:100F30000C0102F0BBF90022BE4BCDE9040102F026
:100F400081F80022BC4BCDE9060101F0B9FECDE9E4
:100F5000080101F0CFFDBB4908600846006802F0B7
:100F6000BBFA80B201460990B94801F0D7FA79E09E
:100F70000022AF4BDDE90C0102F098F90022AD4BE5
:100F8000CDE9020102F05EF80022AB4BCDE904018D
:100F900001F096FECDE90801AA48006802F070FA57
:100FA000CDE90601DDE9082302F04AF95AD2A54845
:100FB000006802F065FAA44AA44BCDE9060102F0EC
:100FC00075F9CDE9080101F095FD9E4908600846D4
:100FD000006802F081FA80B2014609909C4801F055
:100FE0009DFA0022924BDDE90C0102F05FF900222C
:100FF000904BCDE9020102F025F800228E4BCDE99D
:10100000040101F05DFECDE908018E48006802F0A0
:1010100037FACDE90601DDE9082301F0D7FF21D831
:101020000022834BDDE90C0102F040F90022814BE4
:10103000CDE9040102F006F800227F4BCDE906015C
:1010400001F03EFECDE9080101F054FD7D49086044
:101050000846006802F040FA80B2014609907C48D8
:1010600001F05CFA30E100207A49DDE90C2302F05E
:101070001DF900226E4BCDE9000102F017F90022A4
:101080006C4BCDE9020101F0DDFF00226A4BCDE996
:10109000040101F015FECDE908016F48006802F077
:1010A000EFF9CDE90601DDE9082301F08FFF67D2F2
:1010B0006948006802F0E4F9634A644BCDE906012F
:1010C00001F04AFDCDE9080101F014FD6249086014
:1010D0000846006802F000FA80B2014609905C48B8
:1010E00001F01EFA00205B49DDE90C2302F0DEF876
:1010F00000224F4BCDE9000102F0D8F800224D4B01
:10110000CDE9020101F09EFF00224B4BCDE9040125
:1011100001F0D6FDCDE908014F48006802F0B0F9B2
:10112000CDE90601DDE9082302F08AF827D800207E
:101130004849DDE90C2302F0B9F800223C4BCDE927
:10114000020102F0B3F800223A4BCDE9040101F0AC
:1011500079FF0022384BCDE9060101F0B1FDCDE960
:10116000080101F0C7FC3C4908600846006802F02D
:10117000B3F980B201460990354801F0D1F9A2E0F7
:1011800000203449DDE90C2302F090F80022284BBE
:10119000CDE9000102F08AF80022264BCDE90201D8
:1011A00001F050FF0022244BCDE9040101F088FD3D
:1011B000CDE908012848006802F062F9CDE906018E
:1011C000DDE9082302F03CF87DD22348006802F0F4
:1011D00057F91D4A1D4BCDE9060102F067F8CDE92C
:1011E000080101F087FC1C4908600846006802F00D
:1011F00073F980B201460990154801F091F9002079
:101200001449DDE90C2302F051F80022084BCDE926
:10121000000102F04BF80022064BCDE9020101F07B
:1012200011FF0022044BCDE9040101F049FD15E056
:10123000008046C000408F40008056400C000020D7
:1012400000080040100000201CC7711CC7715340EB
:10125000000400400080664014000020CDE9080131
:101260001B48006802F00CF9CDE90601DDE908230E
:1012700001F0ACFE27D800201649DDE90C2302F06E
:1012800015F80022144BCDE9020102F00FF80022FC
:10129000124BCDE9040101F0D5FE0022104BCDE93F
:1012A000060101F00DFDCDE9080101F023FC08491C
:1012B00008600846006802F00FF980B20146099004
:1012C000084801F02DF900BF00BF0EB010BD0000AE
:1012D0001400002000806640008046C000408F401F
:1012E000008056400004004010B50024202000F08B
:1012F00007F9C8B101200D4908600D480488001D98
:10130000048800210B4800F033F8202000F014F886
:10131000202000F01FF840F22661054801F090F906
:101320002B21044800F029F910BD00001C0000200A
:10133000004800401C00024000F0805111B10349F8
:10134000086001E002494860704700000404024060
:101350000000024000F0805111B10349086001E033
:101360000249486070470000040402400000024047
:1013700021B1026842F00102026004E002684FF607
:10138000FE731A400260704701684FF6FE7211400A
:1013900001600021016041608160C1604B49884269
:1013A00008D14A490839496841F00F01474A083ACB
:1013B00051608AE045491431884208D143490839CF
:1013C000496841F0F001414A083A51607DE03F49E7
:1013D0002831884208D13D490839496841F4706193
:1013E0003A4A083A516070E038493C31884208D1A5
:1013F00036490839496841F47041344A083A516025
:1014000063E032495031884208D13049083949688F
:1014100041F470212D4A083A516056E02B4964315D
:10142000884208D129490839496841F47001274A9E
:10143000083A516049E025497831884208D123496A
:101440000839496841F07061204A083A51603CE02F
:101450001F49884206D1011F096841F00F01021F90
:10146000116032E01A491431884208D11849091F25
:10147000096841F0F001164A121F116025E0144975
:101480002831884208D11249091F096841F4706166
:101490000F4A121F116018E00D493C31884208D1F3
:1014A0000B49091F096841F47041094A121F116074
:1014B0000BE007495031884207D10549091F0968E7
:1014C00041F47021024A121F116070470800024067
:1014D0000804024001460020002201F0805313B1AD
:1014E000054B1A6801E0054B1A6802EA01030BB1CB
:1014F000012000E00020704700040240000002408C
:1015000001460020002201F0805313B1054B1A68F8
:1015100001E0054B1A6802EA01030BB1012000E06B
:101520000020704700040240000002401AB1036826
:101530000B43036002E003688B430360704710B500
:101540000022026847F6F0739A430C6A8B682343C3
:101550000C6923434C6923438C692343CC6923439F
:101560004C6A23438C6A23431A430260CB6843606E
:101570000B6883604B68C36010BD41607047704763
:101580002DE9F0410246002500260020002300241A
:10159000002791F803C00CF00F0591F803C00CF080
:1015A000100CBCF1000F03D091F802C04CEA050505
:1015B00091F800C0BCF1000F31D0146800202BE07E
:1015C0004FF0010C0CFA00F3B1F800C00CEA03066E
:1015D0009E4220D183004FF00F0C0CFA03F7BC435E
:1015E00005FA03FC4CEA040491F803C0BCF1280F8F
:1015F00006D14FF0010C0CFA00FCC2F814C00AE04E
:1016000091F803C0BCF1480F05D14FF0010C0CFA62
:1016100000FCC2F810C0401C0828D1D31460B1F8F7
:1016200000C0BCF1FF0F34DD546800202EE000F153
:10163000080C4FF0010808FA0CF3B1F800C00CEAEE
:1016400003069E4221D183004FF00F0C0CFA03F7E2
:10165000BC4305FA03FC4CEA040491F803C0BCF156
:10166000280F05D100F1080C08FA0CF8C2F8148014
:1016700091F803C0BCF1480F07D100F1080C4FF0FE
:10168000010808FA0CF8C2F81080401C0828CED3D4
:101690005460BDE8F0810000F0B50A460023002444
:1016A0000021002500F00046B6F1004F02D11D4E8A
:1016B000F16901E01B4E7168C0F3034583B200F489
:1016C0004016B6F5401F08D121F07061154E7668BE
:1016D00026F07066134F7E6012E000F48016B6F5B7
:1016E000801F06D1032606FA05F4A14341F070617C
:1016F00006E0460D360103FA06F6B14341F070618B
:1017000022B1460D360103FA06F6314300F00046D9
:10171000B6F1004F02D1034EF16101E0014E71605C
:10172000F0BD000000000140416170470161704759
:1017300000BFFEE700B587B001214FF4017000F053
:10174000C9FB00208DF81B000220ADF81800032013
:101750008DF81A0006A92C48FFF712FF4FF400403D
:1017600000F08CFB2948FEF733FE01208DF80900BC
:10177000002004904FF4602003900020019001208D
:101780008DF8140000208DF8080001A91F48FEF70D
:1017900067FE12208DF8000001208DF80300002064
:1017A0008DF801008DF80200684600F023FB4FF42D
:1017B000A06000F057FB01224FF408711348FEF7B8
:1017C00043FE01211148FEF7F8FD1048FEF7CCFE5C
:1017D00000BF0E48FEF72AFE0028FAD10B48FEF79C
:1017E000D3FE00BF0948FEF721FE0028FAD10723E7
:1017F000012211460548FEF75BFE01210348FEF772
:10180000B8FE07B000BD0000000801400024014000
:1018100008B50121080200F05DFB4FF48040ADF8EF
:10182000000003208DF8020010208DF803006946A7
:101830000148FFF7A5FE08BD002001402DE9F04F4B
:1018400089B007460C4615461E46DDE9139ADDF8B9
:1018500048800121312000F03DFB0121062000F0ED
:1018600029FB18208DF823004FF47040ADF82000BC
:1018700003208DF8220008A96D48FFF781FE18208B
:101880008DF823004FF4E070ADF8200003208DF8B0
:10189000220008A96748FFF773FE10208DF8230087
:1018A0004FF4C060ADF8200003208DF8220008A995
:1018B0006048FFF765FE01210803FFF7EDFE0121F7
:1018C0005D48FFF7E9FE44F61F60ADF818004720B9
:1018D000ADF814000020ADF81A00ADF8160005A907
:1018E000564800F025FE44F61F60ADF8180047206A
:1018F000ADF814000020ADF81A00ADF8160005A9E7
:101900004F4800F015FE01214C4800F0B5FC0121C4
:101910004B4800F0B1FC6020ADF80400384601F0FF
:10192000DBFD80B2ADF80A000020ADF80C0001200C
:10193000ADF8060001A9414800F0C4FC6020ADF8F4
:101940000400204601F0C8FD80B2ADF80A00002076
:10195000ADF80C000120ADF8060001A9374800F0F1
:10196000FDFC6020ADF80400284601F0B5FD80B212
:10197000ADF80A000020ADF80C000120ADF806001B
:1019800001A92E4800F03CFD6020ADF8040030466F
:1019900001F0A2FD80B2ADF80A000020ADF80C0005
:1019A0000120ADF8060001A9244800F079FD60206F
:1019B000ADF80400404601F08FFD80B2ADF80A009A
:1019C0000020ADF80C000120ADF8060001A91C486C
:1019D00000F078FC6020ADF80400484601F07CFD82
:1019E00080B2ADF80A000020ADF80C000120ADF87F
:1019F000060001A9124800F0B1FC6020ADF8040017
:101A00001049504601F088FD834601F065FD80B223
:101A1000ADF80A000020ADF80C000120ADF806007A
:101A200001A9074800F0ECFC09B0BDE8F08F000008
:101A30000014014000100140000C1A000008004092
:101A4000000400400000A0411FB50121084600F03D
:101A500031FA40F2E730ADF8080041F61F40ADF82A
:101A600004000020ADF80A00ADF8060001A94FF00F
:101A7000804000F05DFD0121880700F0F7FB0122A6
:101A80001146900700F015FC1C208DF80000012085
:101A90008DF8030002208DF801008DF802006846E1
:101AA00000F0A8F94FF4A06000F0DCF901218807EC
:101AB00000F0E2FB1FBD000000B591B0012144F22F
:101AC000050000F007FA0121084600F0E3F94FF4A1
:101AD0000070ADF8400018208DF8430001208DF80B
:101AE000420010A93348FFF74BFD4FF48060ADF87A
:101AF000400004208DF8430001208DF8420010A919
:101B00002C48FFF73DFD4FF461400C900020ADF8EC
:101B10003400ADF83600ADF838000C20ADF83A00CE
:101B20000020ADF83C000CA9234800F0FDFD23483F
:101B3000FFF72AFC2048001D00902148019000205A
:101B4000029029200390002004908020059000201E
:101B50000690079020200890C001099000200A906C
:101B600069461648FFF7EBFC01211448FFF700FC1B
:101B700025208DF82C0001208DF82F008DF82D00E8
:101B80008DF82E000BA800F035F94FF4A06000F09E
:101B900069F9012240F22441074800F09FFD01222B
:101BA0004021054800F067FD0121034800F057FD82
:101BB00011B000BD0008014000380140580002404B
:101BC0002000002000B585B00121052000F082F939
:101BD0000121480400F06EF90121084600F05AF98D
:101BE0000420ADF8100018208DF8130001208DF8A6
:101BF000120004A91448FFF7C3FC0820ADF8100038
:101C000004208DF8130001208DF8120004A90E485D
:101C1000FFF7B6FC4FF4E13000900020ADF804006F
:101C2000ADF80600ADF808000C20ADF80A00002061
:101C3000ADF80C006946054800F076FD0121034827
:101C400000F00DFD05B000BD00080140004400405B
:101C500000B591B00121212000F03CF90121880458
:101C600000F028F90121084600F014F94FF48070C3
:101C7000ADF8400018208DF8430001208DF8420097
:101C800010A93548FFF77CFC01213448FFF704FD1B
:101C90004FF4E1300C900020ADF83400ADF8360080
:101CA000ADF838000C20ADF83A000020ADF83C004B
:101CB0000CA92B4800F038FD2A48FFF765FB28489F
:101CC000001D009028480190102002902B200390C6
:101CD0000020049080200590002006900790089036
:101CE0004FF44050099000200A9069461D48FFF7C4
:101CF00026FC012202211B48FFF718FC0C208DF85E
:101D00002C0001208DF82F008DF82D0002208DF879
:101D10002E000BA800F06EF827208DF82C00012073
:101D20008DF82F008DF82D0004208DF82E000BA8C3
:101D300000F060F84FF4A06000F094F801228021D8
:101D4000074800F098FC2020FFF704FB012104481D
:101D500000F085FC11B000BD0014014030001400FB
:101D6000004800401C000240080100202DE9F0431B
:101D70008BB007460D4616461C46DDE91289012147
:101D8000084600F087F80F4804803846FFF7FCFA51
:101D90000394CDF8088000200A90019607908020D7
:101DA0000590CDF8209000950020069004904FF407
:101DB0008050099069463846FFF7C1FB0BB0BDE87B
:101DC000F0830000F000002010B5044600212046FA
:101DD000FFF7CEFA044801882046FFF7CEFB012129
:101DE0002046FFF7C5FA10BDF000002000BFFEE757
:101DF0007047000070B5002100230F22C47804B39F
:101E0000154C246804F4E064C4F5E064210AC1F1CF
:101E10000403CA40447804FA03F18478144021434F
:101E200009010E4C0678A155047804F01F05012421
:101E3000AC4005786D11AD0005F1E025C5F8004115
:101E400009E0047804F01F050124AC40044D067835
:101E5000761145F8264070BD0CED00E000E400E08E
:101E600080E100E002490143024A1160704700002E
:101E70000000FA050CED00E070470000014600206C
:101E8000034A506820F44040084350607047000007
:101E90000010024029B1064A52690243044B5A61BC
:101EA00004E0034A52698243014B5A6170470000C3
:101EB0000010024029B1064AD2690243044BDA619C
:101EC00004E0034AD2698243014BDA6170470000A3
:101ED0000010024029B1064A92690243044B9A61FC
:101EE00004E0034A92698243014B9A617047000003
:101EF0000010024029B1064AD2680243044BDA605E
:101F000004E0034AD2688243014BDA607047000064
:101F10000010024030B500210022002400232D4D86
:101F20006D6805F00C0121B1042905D0082923D1E1
:101F300005E0294D056022E0274D05601FE0254D95
:101F40006D6805F47012234D6D6805F48034022528
:101F500005EB92421CB9214D554305600BE01D4D28
:101F60006D6805F400351DB11C4D5543056002E058
:101F7000194D5543056002E0174D056000BF00BFD5
:101F8000144D6D6805F0F0010909154D6B5C05688D
:101F9000DD4045600F4D6D6805F4E061090A104DA4
:101FA0006B5C4568DD4085600A4D6D6805F46051E5
:101FB000C90A0B4D6B5C4568DD40C560054D6D6819
:101FC00005F44041890B074D6B5CC568B5FBF3F523
:101FD000056130BD0010024000127A0000093D008A
:101FE000F300002003010020704710B500F002F854
:101FF00010BD00000CB5002001900090334800682F
:1020000040F480303149086000BF3048006800F477
:10201000003000900198401C0190009818B9019878
:10202000B0F5A06FF1D12948006800F4003010B17C
:102030000120009001E0002000900098012843D189
:102040002348006840F010002149086008460068F5
:1020500020F0030008600846006840F002000860B5
:102060001A48406819494860084640684860084670
:10207000406840F4806048600846406820F47C1066
:1020800048600846406840F4E81048600846006828
:1020900040F08070086000BF0C48006800F00070DD
:1020A0000028F9D00948406820F00300074948603B
:1020B0000846406840F00200486000BF034840689E
:1020C00000F00C000828F9D10CBD000000100240FF
:1020D000002002407047000010B51348006840F02F
:1020E00001001149086008464068104908400E493F
:1020F0004860084600680E4908400B4908600846D9
:10210000006820F4802008600846406820F4FE0043
:1021100048604FF41F008860FFF767FF4FF00060D2
:102120000449086010BD0000001002400000FFF8E4
:10213000FFFFF6FE08ED00E070B50121880700F012
:10214000A7F800287DD00121880700F092F83D48CB
:102150000078002853D13C4890F8210048B93B480A
:10216000006801F08DF9044622460B460120FEF777
:102170002BFA354890F8220048B93548006801F03C
:102180007FF9044622460B460220FEF71DFA2E4830
:1021900090F8230048B92F48006801F071F904460F
:1021A00022460B460320FEF70FFA274890F824003A
:1021B00048B92948006801F063F9044622460B46F5
:1021C0000420FEF701FA2548006801F059F9044699
:1021D00022460B460520FEF7F7F92148006801F07A
:1021E0004FF9044622460B460620FEF7EDF91D483E
:1021F000006801F045F90446FEF7CEF921E000221F
:10220000194B0120FEF7E0F90022174B0220FEF7E0
:10221000DBF90022144B0320FEF7D6F90022124B03
:102220000420FEF7D1F900220F4B0520FEF7CCF970
:1022300000220D4B0620FEF7C7F900200146FEF7ED
:10224000ABF970BDF20000206E000020B800002045
:10225000BC000020C0000020C4000020C8000020F6
:10226000CC000020D000002000805640CA430282EB
:102270007047CA430282704721B1028842F00102CE
:10228000028004E002884FF6FE731A400280704715
:1022900030B50246002000230024158A05EA010318
:1022A000958905EA010413B10CB1012000E000207A
:1022B00030BD1AB183890B43838102E083898B434C
:1022C0008381704770B5002400220023058C4FF6EF
:1022D000FE7635400584028C8388048B4FF68F751B
:1022E0002C40B51E2C400D882C43751E2A400D89AC
:1022F0002A434D882A43144DA8420BD0134DA842BF
:1023000008D0134DA84205D0124DA84202D0124D5C
:10231000A84213D14FF6F7752A404D892A434FF64C
:10232000FB752A408D882A434FF6FF652B404FF6F8
:10233000FF552B408D892B43CD892B43838004830C
:10234000CD888586028470BD002C01400034014098
:1023500000400140004401400048014070B50024A5
:1023600000220023058C4FF6EF7635400584028C61
:102370008388048B48F6FF752C404FF6FF452C40B0
:102380000D884FF6FF7606EA05252C434FF6DF75DC
:102390002A400D8906EA05152A434D8806EA0515E7
:1023A0002A43154DA84202D0144DA8421DD14FF624
:1023B0007F752A404D894FF6FF7606EA05152A43B8
:1023C0004FF6BF752A408D8806EA05152A434FF659
:1023D000FF352B404FF2FF752B408D8906EA8505AE
:1023E0002B43CD8906EA85052B4383800483CD8862
:1023F0000587028470BD0000002C014000340140BC
:1024000070B5002400220023058C4FF6FF6635408E
:102410000584028C8388848B4FF68F752C404FF691
:10242000FC752C400D882C434FF6FF552A400D8932
:102430004FF6FF7606EA05252A434D8806EA05256C
:102440002A43154DA84202D0144DA8421DD14FF287
:10245000FF752A404D894FF6FF7606EA05252A4387
:102460004FF6FF352A408D8806EA05252A434EF6A9
:10247000FF752B404DF6FF752B408D8906EA05153B
:102480002B43CD8906EA05152B4383808483CD88B1
:102490008587028470BD0000002C0140003401409B
:1024A00070B5002200230024058C4EF6FF763540DF
:1024B0000584038C8488828B48F6FF752A404FF68A
:1024C000FF452A400D884FF6FF7606EA05252A4388
:1024D0004DF6FF752B400D8906EA05352B434D88D7
:1024E00006EA05352B430B4DA84202D00A4DA842FF
:1024F00008D14BF6FF752C408D894FF6FF7606EA22
:1025000085152C4384808283CD88A0F840500384B5
:1025100070BD0000002C01400034014081867047EE
:102520000187704781877047A0F84010704700000E
:10253000002202881D4B98420ED01D4B98420BD0B2
:10254000B0F1804F08D01B4B984205D01A4B9842EF
:1025500002D01A4B984204D14FF68F731A404B8821
:102560001A43174B984207D0164B984204D04FF6A7
:10257000FF431A40CB881A4302808B8883850B88DF
:1025800003850A4B98420BD0094B984208D00E4B5A
:10259000984205D00D4B984202D00D4B984201D184
:1025A0000B7A03860123838270470000002C0140D0
:1025B000003401400004004000080040000C0040CE
:1025C0000010004000140040004001400044014061
:1025D0000048014070B50024002540F22441144811
:1025E00000F052F810B312480488001D048800213E
:1025F0001048FEF7BDFE29220F491048FDF706FEE0
:102600000E480078FF2809D10C4890F8280033289C
:1026100004D1012107483C38FEF7AAFE29210548CC
:10262000FEF7ABFF01210348FEF7A2FE70BD0000DC
:10263000003801405800024020000020080100201E
:1026400010B50022002340F66A14A14200D100BF59
:102650000A1201249440A3B2DC43048010BD21B1CE
:10266000828942F40052828104E082894DF6FF7330
:102670001A40828170471AB1838A0B43838202E039
:10268000838A8B438382704770B5024600240023FF
:102690000025002040F66A16B14200D100BFC1F308
:1026A000421501F01F03012606FA03F3012D02D1A2
:1026B0009689334006E0022D02D1168A334001E0AC
:1026C000968A33400C12012606FA04F41688344028
:1026D00013B10CB1012000E0002070BDF0B503463D
:1026E000002400260025002040F66A17B94200D1D8
:1026F00000BF1846C1F3421401F01F06012707FA74
:1027000006F5012C01D10C3004E0022C01D110306F
:1027100000E014301AB107682F43076002E0076831
:10272000AF430760F0BD00002DE9F04786B00546D5
:102730000E460024A24600BFA1460027B08900B182
:1027400000BF2F462C8A4CF6FF700440F0880443EB
:102750002C82AC894EF6F3100440B08831890843CE
:10276000718908430443AC81AC8A4FF6FF400440B2
:10277000B0890443AC8201A8FFF7CCFB1F48874215
:1027800002D1DDF810A001E0DDF80CA0A88900F46A
:10279000004040B10AEBCA0000EB0A103168490062
:1027A000B0FBF1F807E00AEBCA0000EB0A10316851
:1027B0008900B0FBF1F86420B8FBF0F004012009B7
:1027C000642101FB1089A88900F4004040B1322047
:1027D00000EBC900B0FBF1F000F00700044308E093
:1027E000322000EB09106421B0FBF1F000F00F0083
:1027F00004432C8106B0BDE8F0870000003801409A
:1028000000BFFEE70EB5FFF767FCFFF701F8994838
:10281000016899480068994A1268CDE90020029140
:102820009748036897480268974801689748006886
:10283000FFF704F8FFF740F9FFF7C4F9FFF708FACC
:10284000FFF702F9FEF776FF202000212523904AAA
:10285000CDE900108F499048FFF788FA0122402106
:102860008C48001FFFF707FF8B48FFF7ADFA4FF4C6
:1028700080418A48FEF75AFF4FF400718848FEF7FE
:1028800055FF4FF480618648FEF74EFFF0E04FF4AD
:102890000010FEF71FFE00287BD0002400254FF417
:1028A0000010FEF749FD00BF04E07948005D7D4956
:1028B0000855641C252CF8DB7A4800785A2811D179
:1028C0007848407801280DD17648C07F332809D157
:1028D000002404E07348005D73490855641C252CEE
:1028E000F8DB08E0002404E06F48005D6D490855FE
:1028F000641C252CF8DB0024022505E06948405DB6
:102900006A490855641C6D1C042CF7DB6748006895
:10291000674908600024062505E06248405D654976
:102920000855641C6D1C042CF7DB62480068624982
:10293000086000240A2505E05A48405D5F490855B3
:10294000641C6D1C042CF7DB5C4800685C49086063
:1029500000240E2505E05348405D5A490855641C83
:102960006D1C042CF7DB57480068574908600024A9
:10297000122505E04B48405D54490855641C6D1C08
:10298000042CF7DB514800685149086000241625E3
:1029900006E064E04348405D4E490855641C6D1CE8
:1029A000042CF7DB4B4800684B49086000241A25CB
:1029B00005E03C48405D49490855641C6D1C042CE9
:1029C000F7DB384890F82000FF280AD14FF48061E7
:1029D0003348FEF7ABFE4FF400713148FEF7A4FE1A
:1029E00009E04FF400712E48FEF7A0FE4FF480611D
:1029F0002B48FEF799FE3948006839490860294894
:102A0000807FFF282AD100214FF08040FFF734FC5F
:102A100040F2DC513348FFF781FD40F2DC51314890
:102A2000FFF77EFD40F2DC512E48FFF77BFD40F2C0
:102A3000DC512C48FFF778FD40F2DC512A48FFF7C3
:102A40006DFD40F2DC512848FFF76AFD0021264861
:102A5000FFF768FD01218807FFF70EFC00BF234840
:102A60000078234981F829000E48807F81F82A00E8
:102A70000DE70000180000201400002010000020C6
:102A80000C000020080000200400002000000020AE
:102A900049000020044400406C0002400020014036
:102AA000001001406E00002093000020D4000020A0
:102AB000B8000020D8000020BC000020DC0000206E
:102AC000C0000020E0000020C4000020E40000203E
:102AD000C8000020E8000020CC000020EC0000200E
:102AE000D00000200008004000040040F200002058
:102AF0000801002021F00042A2F16052B2F5801FCF
:102B000001F0004328BFD2F17F6C0BD95FEA001CB3
:102B100043EAC20242EB507018BF704728BF20F052
:102B200001007047B2F5801FBCBF184670474FEADE
:102B3000410C1CF5001F02D2084600F0B4BD70B570
:102B400000F02AFB00000089FFF7F6BF4FF00040BD
:102B5000A0F580007047000010B591EA030F48BF50
:102B600083F0004300F1AA83841A71EB030C05D2B1
:102B7000121943EB0C03001B61EB0C01DFF824E19D
:102B80004FEA1154A4EB135C1EEA430F18BF9EEAF0
:102B9000445F73D023EA0E03DCF1200E21EA0451D6
:102BA00043F4801332D322FA0CFE10EB0E0023FA0A
:102BB0000CFE41EB0E01CCF1200E03FA0EFE10EBE1
:102BC0000E0051F10001B1F5801FCCF1200E32D280
:102BD00001EB045112FA0EF2BDE8104058BF7047E5
:102BE000401C38BF5FEA420218BF7047002814BF7C
:102BF00020F0010041F100014FEA410313F5001FED
:102C000038BF7047A1F1C04100F014BB012A43EB6B
:102C10000302ACF1200CDCF11F0E32BF4FF0000EAE
:102C200023FA0CF310EB030041EB0451B4EB115FFA
:102C3000D0D0A1EB045101F5801149085FEA3000C2
:102C400001EB04510ED350F1000038BF12FA0EFE12
:102C500008D1BDE81040C9E7401C38BF5FEA420216
:102C6000CAD1C3E7BDE810404FEA410313F5001F86
:102C700038BF7047A1F1C04100F0DCBA9EEA445F62
:102C800008D011EA5E0FBDE8104004BF01F000411A
:102C900000207047BDE8104070B500F07DFA00BF1D
:102CA00064FBBE3E0000E0FF491058BFC1F1404147
:102CB0005B1058BFC3F140438B42EFF30080704775
:102CC0002DE9C04130B4DFF8A0C23CEA111418BFAE
:102CD0003CEA131400F0EC8081EA03051CEA1114AD
:102CE00044EAD57418BF1CEA131500F0C780A4EBA2
:102CF00005044FF0004545EAC12145EAC32341EAF6
:102D0000505143EA525304F17F74994204F5003460
:102D10004FEAC0204FEAC22208BF904200F09C80D8
:102D20004FEA13650FF24016765D4FEA134506FB36
:102D300005F7C7F1807706FB07F74FEAD737A7FB00
:102D400003687642C8F58038A7FB06CE38BFA8F1E5
:102D5000010807FB08E64FF0000EA6FB028CE6FB1D
:102D600003CEDCF1000CCEF1004E38BFAEF1010E07
:102D7000A6FB0C584FF000074FF00005E6FB0E874E
:102D8000A1FB08C6A0FB07CE16EB0E0645F1000519
:102D9000E1FB076515F1E04E7EBFA4F580345FEAE4
:102DA00046066D4116F1800745F100054FEA1727E9
:102DB0004FEA066647EA0567A6F1DE46B6F1805F90
:102DC0004FEA15251FD9384624F0010C05EBC471D4
:102DD000BCF1FE6F01EB0C1102D8F0BCBDE8008124
:102DE00024425CBF01F5801E9EEAC47F02D4F0BC81
:102DF000BDE80081244238D4F0BCA1F1C041BDE857
:102E0000004100F017BA4FEAD22242EA43524FEA99
:102E1000D323A7FB02864FEAD02040EA415007FBAC
:102E200003661EEA0E0F4FEAD12105FB026658BF6A
:102E3000A6EB0056B6EB00564FEA520E4EEAC37EA2
:102E400018EB0E0E56EB530EBDD518EB02085E4183
:102E50007F1C55F10005B6E74FF480154FF00007D1
:102E60004FF000064FF00008ADE7F0BC4FF0000057
:102E700001F1C04101F00041BDE8008111EA0C1FE1
:102E80000CEA131500D00CE013EA0C1F00F02580AB
:102E90004FF00000F0BC81EA030101F00041BDE801
:102EA0000081F0BCBDE8004181EA030100F0C2B935
:102EB000F0BCBDE8004170B500F06EF9097EFC3E43
:102EC00000F007B881EA03014FF0000001F0004173
:102ED000704781EA030100F0ADB9F0BCBDE80041E4
:102EE0004FF0000021497047FFFDFBF9F7F5F4F2C0
:102EF000F0EEEDEBE9E8E6E4E3E1E0DEDDDBDAD895
:102F0000D7D5D4D3D1D0CFCDCCCBCAC8C7C6C5C4F2
:102F1000C2C1C0BFBEBDBCBBBAB9B8B7B6B5B4B309
:102F2000B2B1B0AFAEADACABAAA9A8A8A7A6A5A4F4
:102F3000A3A3A2A1A09F9F9E9D9C9C9B9A999998B8
:102F40009797969595949393929191908F8F8E8E5B
:102F50008D8C8C8B8B8A89898888878786858584E8
:102F600084838382828181800000FF070000F87FD4
:102F70004FEA1153A3F58063D3F11E03A8BFD3F129
:102F8000200C08DB4FF0004242EAC12252EA5052C4
:102F900032FA03F0704709420BD4102BC4BF002053
:102FA000704703F5787CBCF1FF3F05D04FF0FF3050
:102FB00070474FF00000704770B500F0EDF800BFAB
:102FC0004992248000207047F0E7000051EA030C8A
:102FD00017D41CF5801F58BFBCF5801F00F1068078
:102FE000994218BF704708BF9042704707D711F544
:102FF000801F58BF13F5801F19D49942704789422A
:1030000070471CF5801F08D5BCF5801FF7D58B4293
:1030100018BF704708BF824270474FF4001C1CEB7A
:10302000410F38BF1CEB430F01D28B42704770B584
:1030300000F0B2F8922449004FF000514FF0805355
:10304000FFF732BEDFF848C170B51CEA111E1EBF83
:103050001CEA13159EEA0C0F95EA0C0F00F06F8026
:1030600081EA030423EA4C134EEAD47E21EA4C1190
:1030700041F4801143F48013AE44A1FB024CA0FB49
:103080000365AEF17F7E361955EB0C05A1FB034CB1
:103090004CF10003A0FB021C16EB0C06654153F13A
:1030A0000003094218BF46F0010613F4007F0BD15C
:1030B0004FEA03314FEA0530340341EA155140EA43
:1030C00016506FF003020AE04FEAC3214FEAC52011
:1030D000F40241EA555140EA56506FF0020202EB09
:1030E0002E4201EB025585EACE710AD05FEA440C0C
:1030F00018BF24F0004450F1000041F1000120EA23
:10310000D47040F2FE7C624500D270BDA84214BF6C
:103110004FF080444FF04044002E08BF0024BEF121
:10312000806FA8BFA1F1C041BDE8704080F28280ED
:103130004FF0000001F1C04101F0004170479EEAEC
:103140000C0F0CEA131518BF95EA0C0F06D04FF0C0
:10315000000081EA030E0EF0004170BD00F01CF883
:103160008900013E00F007B800F009B84FEA430CAF
:103170005FEA5C5C08D081EA030100F05BB84FEACB
:10318000410C5FEA5C5CF6D14FF0000001497047EA
:103190000000FF070000F87F0EF1020E2EF0030E74
:1031A0005EF8046B364205D4012A43EB030515F59E
:1031B000001F12D8012841EB010C1CF5001F0CD890
:1031C0000ED14FEAD17C15F5001F0CEB4C0C0CF125
:1031D000020C08BF4CEBD37C04E04FF0080C01E07C
:1031E0004FEAD37C0CEB4C0526FA05F606F00706F1
:1031F000B6F1040C06D20EEB860CBDE870404CF024
:10320000010C6047DFE80CF0090B02024FF00041AF
:103210004FF00000A1F5002170BD194610460128AD
:1032200051EB010418BFD4F5001484BF002001F055
:10323000004170BD0808A0F500114FEA3101704748
:1032400053EA010C17D41CF5801F58BFBCF5801F32
:1032500000F106808B4218BF704708BF824270475A
:1032600007D713F5801F58BF11F5801F19D48B4263
:1032700070479B4270471CF5801F08D5BCF5801F26
:10328000F7D5994218BF704708BF904270474FF476
:10329000001C1CEB430F38BF1CEB410F01D29942BD
:1032A00070470FB40CBC03BCFFF7C1BE10B591EA68
:1032B000030F48BF83F000433FF556AC841A71EB0F
:1032C000030C07D212198CF0004C43EB0C03001BCB
:1032D00061EB0C01DFF8A4E14FEA1154A4EB135C9D
:1032E0001EEA430F18BF9EEA445F00F0B08023EA55
:1032F0006E03524221EA0451C3EB6E0338BF5B1EDA
:10330000DCF1200E25D322FA0CFE10EB0E0043FA5E
:103310000CFE41EB0E01CCF1200E03FA0EFE10EB79
:103320000E0051F10001CCF1200E29D412FA0EF258
:1033300001EB0451BDE8104058BF7047401C1CBF52
:10334000B2F1004F704700280CBF491C20F001006B
:10335000704712EB020E43EB030218BF4FF0010E51
:103360004EEA4202ACF1200CDCF11E0E54D943FAB5
:103370000CFE10EB0E0051F1FF31CCF11E0ED5D535
:103380000EF1010E12FA0EFE404141EB010101EB7C
:10339000445C5FEA5C5C10D910EBDE7001EB045119
:1033A00038BFBEF1004FBDE8104018BF704700287D
:1033B0000CBF491C20F00100704730D24FEAD42CDA
:1033C00011F5001124F400641BD0B1FA81F20B3A1C
:1033D000A41AA41ED2F12003914030FA03F319433A
:1033E000904001EBCC71002C01EB0451BDE8104082
:1033F000A8BF704701F1C0414FF0000001F000414B
:103400007047B0FA80F310FA03F100D110BDE41A4E
:10341000173C4805C90AE4E701EB045110BD491007
:1034200001EB0451BDE810404FEA300002E04FF0DC
:10343000000170474A0008BF0042F8D0B2F5001FF3
:1034400028BF704701F000414FF0000070479EEA2E
:10345000445F07D011EA5E0FBDE8104004BF0021B1
:1034600000207047BDE8104070B5FFF795FE00BF23
:1034700040DFF63E83F00041104670470000E0FF59
:1034800043004FEAD30C4FEA3C0C43401FBF4007B8
:103490000CF1605113F0FE4F70471CF0006F03D128
:1034A00000200CF0004170470CF0004343EA5070DC
:1034B00010B540EACC0000F0B0F800BF0000009268
:1034C0004FEA0001FFF7B6BE4FF000414FF0000099
:1034D000A1F5002170470000C10DD1F19E0206DB6D
:1034E0004FEA002343F0004323FA02F07047004202
:1034F00007D54FEA4001B1F1FE4F02D24FF0000074
:10350000704710B500F089F8499224800020704778
:103510006FEA2000704700004FF47F0C1CEAD012C5
:103520001EBF1CEAD11392EA0C0F93EA0C0F00F0B5
:10353000478090EA010F48BF42F480724FF0004C80
:103540004CEA00204CEA012102EB0302A0FB01132C
:10355000A2F50002002918BF43F001035B0028BF59
:103560004FEA330342EB22425FEA132C4CEBC2508A
:103570002EBFBCEB436FB2F57C0F70474FEA036C74
:10358000BCF1004F08BF20F00100B2F57C0F38BF3E
:1035900070470BD582F0FF0212F5803FC8BF70471D
:1035A00000F1C040D8BF00F00040704700F5000CAB
:1035B0005FEA4C0C48BF7047B0F1C04000F073B8F0
:1035C00090EA010F0CEAD11348BF42F480726245C1
:1035D00038BF634504D280EA010000F00040704724
:1035E00010B500F01AF800BF8900013E00F007B8DE
:1035F00000F009B85FEA410C5FEA1C6C08D080EA71
:10360000010000F050B85FEA400C5FEA1C6CF6D194
:103610004FF00040A0F5800070470EF1020E2EF032
:10362000030E5EF8044B244204D44FEA4102B2F187
:103630007F4F11D84FEA4003B3F17F4F0CD80ED122
:103640004FEAD07CB2F17F4F0CEB4C0C0CF1020C2A
:1036500008BF4CEBD17C04E04FF0080C01E04FEACE
:10366000D17C0CEB4C0324FA03F404F00704B4F10E
:10367000040C06D20EEB840CBDE810404CF0010C9B
:103680006047DFE80CF0070802024FF00040A0F5A9
:10369000800010BD0846420018BFD2F1807288BF7A
:1036A00000F0004010BDFF2141EAD050C005704736
:1036B000D036000800000020080100006C0100085E
:1036C000D837000808010020900600008801000893
:1036D0000080BB440080BB440080BB440080BB44EE
:1036E0000080BB440080BB440000000000000000DC
:1036F000FF000000000000000000000000000000CB
:1037000000000000000000000000000000000000B9
:103710000000000000000000005A010000005A00F4
:1037200000005A0000005A0000005A0000005A0031
:1037300000005A000003E8003300000000005A01B6
:103740000000005A0000005A0000005A0000005A11
:103750000000005A0000005A000003E80033000097
:103760000000005A010000005A0000005A0000004A
:103770005A0000005A0000005A0000005A000003DE
:10378000E8003300000000000000B4420000B44232
:103790000000B4420000B4420000B4420000B44251
:1037A0000000000000000000000000000000000019
:1037B0000000000000000000000000000000000009
:1037C00000000000000000010203040102030406DF
:0837D0000708090204060800C5
:04000005080001CD21
:00000001FF
